{
  "contractName": "Swap",
  "abi": [
    {
      "inputs": [],
      "stateMutability": "nonpayable",
      "type": "constructor"
    },
    {
      "anonymous": false,
      "inputs": [
        {
          "indexed": true,
          "internalType": "address",
          "name": "previousOwner",
          "type": "address"
        },
        {
          "indexed": true,
          "internalType": "address",
          "name": "newOwner",
          "type": "address"
        }
      ],
      "name": "OwnershipTransferred",
      "type": "event"
    },
    {
      "inputs": [
        {
          "internalType": "string",
          "name": "",
          "type": "string"
        }
      ],
      "name": "contractABIMap",
      "outputs": [
        {
          "internalType": "string",
          "name": "",
          "type": "string"
        }
      ],
      "stateMutability": "view",
      "type": "function"
    },
    {
      "inputs": [],
      "name": "crossChainContract",
      "outputs": [
        {
          "internalType": "contract ICrossChain",
          "name": "",
          "type": "address"
        }
      ],
      "stateMutability": "view",
      "type": "function"
    },
    {
      "inputs": [
        {
          "internalType": "string",
          "name": "",
          "type": "string"
        },
        {
          "internalType": "string",
          "name": "",
          "type": "string"
        }
      ],
      "name": "destnContractMap",
      "outputs": [
        {
          "internalType": "string",
          "name": "contractAddress",
          "type": "string"
        },
        {
          "internalType": "string",
          "name": "funcName",
          "type": "string"
        },
        {
          "internalType": "bool",
          "name": "used",
          "type": "bool"
        }
      ],
      "stateMutability": "view",
      "type": "function"
    },
    {
      "inputs": [],
      "name": "getContext",
      "outputs": [
        {
          "components": [
            {
              "internalType": "uint256",
              "name": "id",
              "type": "uint256"
            },
            {
              "internalType": "string",
              "name": "fromChain",
              "type": "string"
            },
            {
              "internalType": "string",
              "name": "sender",
              "type": "string"
            },
            {
              "internalType": "string",
              "name": "signer",
              "type": "string"
            },
            {
              "components": [
                {
                  "internalType": "uint8",
                  "name": "reveal",
                  "type": "uint8"
                }
              ],
              "internalType": "struct SQOS",
              "name": "sqos",
              "type": "tuple"
            },
            {
              "internalType": "address",
              "name": "contractAddress",
              "type": "address"
            },
            {
              "internalType": "string",
              "name": "action",
              "type": "string"
            }
          ],
          "internalType": "struct SimplifiedMessage",
          "name": "",
          "type": "tuple"
        }
      ],
      "stateMutability": "view",
      "type": "function"
    },
    {
      "inputs": [
        {
          "internalType": "string",
          "name": "_destnChainName",
          "type": "string"
        },
        {
          "internalType": "string",
          "name": "_destnContractName",
          "type": "string"
        },
        {
          "internalType": "string",
          "name": "_funcName",
          "type": "string"
        }
      ],
      "name": "getMessageABI",
      "outputs": [
        {
          "components": [
            {
              "internalType": "string",
              "name": "parametertypes",
              "type": "string"
            },
            {
              "internalType": "string",
              "name": "parameterNames",
              "type": "string"
            }
          ],
          "internalType": "struct ContractBase.MessageABI",
          "name": "",
          "type": "tuple"
        }
      ],
      "stateMutability": "view",
      "type": "function"
    },
    {
      "inputs": [
        {
          "internalType": "uint256",
          "name": "",
          "type": "uint256"
        }
      ],
      "name": "idToFillOrder",
      "outputs": [
        {
          "internalType": "uint256",
          "name": "orderId",
          "type": "uint256"
        },
        {
          "internalType": "string",
          "name": "fromChainId",
          "type": "string"
        },
        {
          "internalType": "address",
          "name": "sender",
          "type": "address"
        },
        {
          "internalType": "address",
          "name": "tokenContract",
          "type": "address"
        },
        {
          "internalType": "uint256",
          "name": "amount",
          "type": "uint256"
        },
        {
          "internalType": "bytes32",
          "name": "hashlock",
          "type": "bytes32"
        },
        {
          "internalType": "uint256",
          "name": "createTime",
          "type": "uint256"
        },
        {
          "internalType": "uint256",
          "name": "timelock",
          "type": "uint256"
        },
        {
          "internalType": "address",
          "name": "payee",
          "type": "address"
        },
        {
          "internalType": "string",
          "name": "status",
          "type": "string"
        },
        {
          "internalType": "bool",
          "name": "transfer",
          "type": "bool"
        }
      ],
      "stateMutability": "view",
      "type": "function"
    },
    {
      "inputs": [
        {
          "internalType": "uint256",
          "name": "",
          "type": "uint256"
        }
      ],
      "name": "idToOrder",
      "outputs": [
        {
          "internalType": "uint256",
          "name": "orderId",
          "type": "uint256"
        },
        {
          "internalType": "address",
          "name": "sender",
          "type": "address"
        },
        {
          "internalType": "address",
          "name": "tokenContract",
          "type": "address"
        },
        {
          "internalType": "address",
          "name": "toTokenContract",
          "type": "address"
        },
        {
          "internalType": "uint256",
          "name": "amount",
          "type": "uint256"
        },
        {
          "internalType": "uint256",
          "name": "toAmount",
          "type": "uint256"
        },
        {
          "internalType": "bytes32",
          "name": "hashlock",
          "type": "bytes32"
        },
        {
          "internalType": "uint256",
          "name": "createTime",
          "type": "uint256"
        },
        {
          "internalType": "string",
          "name": "fromChainId",
          "type": "string"
        },
        {
          "internalType": "string",
          "name": "toChainId",
          "type": "string"
        },
        {
          "internalType": "string",
          "name": "status",
          "type": "string"
        },
        {
          "internalType": "address",
          "name": "payee",
          "type": "address"
        }
      ],
      "stateMutability": "view",
      "type": "function"
    },
    {
      "inputs": [
        {
          "internalType": "bytes",
          "name": "",
          "type": "bytes"
        }
      ],
      "name": "messageABIMap",
      "outputs": [
        {
          "internalType": "string",
          "name": "parametertypes",
          "type": "string"
        },
        {
          "internalType": "string",
          "name": "parameterNames",
          "type": "string"
        }
      ],
      "stateMutability": "view",
      "type": "function"
    },
    {
      "inputs": [],
      "name": "owner",
      "outputs": [
        {
          "internalType": "address",
          "name": "",
          "type": "address"
        }
      ],
      "stateMutability": "view",
      "type": "function"
    },
    {
      "inputs": [
        {
          "internalType": "string",
          "name": "",
          "type": "string"
        },
        {
          "internalType": "string",
          "name": "",
          "type": "string"
        }
      ],
      "name": "permittedContractMap",
      "outputs": [
        {
          "internalType": "string",
          "name": "",
          "type": "string"
        }
      ],
      "stateMutability": "view",
      "type": "function"
    },
    {
      "inputs": [
        {
          "internalType": "string",
          "name": "_funcName",
          "type": "string"
        },
        {
          "internalType": "string",
          "name": "_contractABI",
          "type": "string"
        }
      ],
      "name": "registerContractABI",
      "outputs": [],
      "stateMutability": "nonpayable",
      "type": "function"
    },
    {
      "inputs": [
        {
          "internalType": "string",
          "name": "_destnChainName",
          "type": "string"
        },
        {
          "internalType": "string",
          "name": "_destnContractName",
          "type": "string"
        },
        {
          "internalType": "string",
          "name": "_funcName",
          "type": "string"
        },
        {
          "internalType": "string",
          "name": "_paramType",
          "type": "string"
        },
        {
          "internalType": "string",
          "name": "_paramName",
          "type": "string"
        }
      ],
      "name": "registerMessageABI",
      "outputs": [],
      "stateMutability": "nonpayable",
      "type": "function"
    },
    {
      "inputs": [],
      "name": "renounceOwnership",
      "outputs": [],
      "stateMutability": "nonpayable",
      "type": "function"
    },
    {
      "inputs": [
        {
          "internalType": "address",
          "name": "_address",
          "type": "address"
        }
      ],
      "name": "setCrossChainContract",
      "outputs": [],
      "stateMutability": "nonpayable",
      "type": "function"
    },
    {
      "inputs": [
        {
          "internalType": "address",
          "name": "newOwner",
          "type": "address"
        }
      ],
      "name": "transferOwnership",
      "outputs": [],
      "stateMutability": "nonpayable",
      "type": "function"
    },
    {
      "inputs": [
        {
          "internalType": "string",
          "name": "chain_from",
          "type": "string"
        },
        {
          "internalType": "address",
          "name": "asset_from",
          "type": "address"
        },
        {
          "internalType": "uint256",
          "name": "amount_from",
          "type": "uint256"
        },
        {
          "internalType": "string",
          "name": "chain_to",
          "type": "string"
        },
        {
          "internalType": "address",
          "name": "asset_to",
          "type": "address"
        },
        {
          "internalType": "uint256",
          "name": "amount_to",
          "type": "uint256"
        }
      ],
      "name": "create_order",
      "outputs": [
        {
          "internalType": "bool",
          "name": "",
          "type": "bool"
        }
      ],
      "stateMutability": "nonpayable",
      "type": "function"
    },
    {
      "inputs": [
        {
          "internalType": "uint256",
          "name": "order_id",
          "type": "uint256"
        }
      ],
      "name": "query_order",
      "outputs": [],
      "stateMutability": "nonpayable",
      "type": "function"
    },
    {
      "inputs": [],
      "name": "query_all_orders",
      "outputs": [
        {
          "components": [
            {
              "internalType": "uint256",
              "name": "orderId",
              "type": "uint256"
            },
            {
              "internalType": "address",
              "name": "sender",
              "type": "address"
            },
            {
              "internalType": "address",
              "name": "tokenContract",
              "type": "address"
            },
            {
              "internalType": "address",
              "name": "toTokenContract",
              "type": "address"
            },
            {
              "internalType": "uint256",
              "name": "amount",
              "type": "uint256"
            },
            {
              "internalType": "uint256",
              "name": "toAmount",
              "type": "uint256"
            },
            {
              "internalType": "bytes32",
              "name": "hashlock",
              "type": "bytes32"
            },
            {
              "internalType": "uint256",
              "name": "createTime",
              "type": "uint256"
            },
            {
              "internalType": "string",
              "name": "fromChainId",
              "type": "string"
            },
            {
              "internalType": "string",
              "name": "toChainId",
              "type": "string"
            },
            {
              "internalType": "string",
              "name": "status",
              "type": "string"
            },
            {
              "internalType": "address",
              "name": "payee",
              "type": "address"
            }
          ],
          "internalType": "struct Swap.Order[]",
          "name": "",
          "type": "tuple[]"
        }
      ],
      "stateMutability": "view",
      "type": "function"
    },
    {
      "inputs": [
        {
          "internalType": "string",
          "name": "chain_id",
          "type": "string"
        },
        {
          "internalType": "uint256",
          "name": "order_id",
          "type": "uint256"
        },
        {
          "internalType": "address",
          "name": "asset",
          "type": "address"
        },
        {
          "internalType": "uint256",
          "name": "amount",
          "type": "uint256"
        },
        {
          "internalType": "address",
          "name": "payee",
          "type": "address"
        },
        {
          "internalType": "string",
          "name": "hashkey",
          "type": "string"
        }
      ],
      "name": "match_order",
      "outputs": [],
      "stateMutability": "nonpayable",
      "type": "function"
    },
    {
      "inputs": [
        {
          "internalType": "uint256",
          "name": "order_id",
          "type": "uint256"
        },
        {
          "internalType": "address",
          "name": "payee_address",
          "type": "address"
        },
        {
          "internalType": "address",
          "name": "from_chain_payee",
          "type": "address"
        },
        {
          "internalType": "address",
          "name": "from_chain_asset",
          "type": "address"
        },
        {
          "internalType": "uint256",
          "name": "amount",
          "type": "uint256"
        },
        {
          "internalType": "bytes32",
          "name": "hash",
          "type": "bytes32"
        }
      ],
      "name": "receive_match_order",
      "outputs": [],
      "stateMutability": "nonpayable",
      "type": "function"
    },
    {
      "inputs": [
        {
          "internalType": "string",
          "name": "chain_id",
          "type": "string"
        },
        {
          "internalType": "uint256",
          "name": "order_id",
          "type": "uint256"
        },
        {
          "internalType": "string",
          "name": "hashkey",
          "type": "string"
        },
        {
          "internalType": "address",
          "name": "payee_address",
          "type": "address"
        }
      ],
      "name": "unlock_asset",
      "outputs": [],
      "stateMutability": "nonpayable",
      "type": "function"
    },
    {
      "inputs": [
        {
          "internalType": "uint256",
          "name": "order_id",
          "type": "uint256"
        },
        {
          "internalType": "string",
          "name": "hashkey",
          "type": "string"
        },
        {
          "internalType": "address",
          "name": "payee_address",
          "type": "address"
        }
      ],
      "name": "recv_unlock_asset",
      "outputs": [],
      "stateMutability": "nonpayable",
      "type": "function"
    },
    {
      "inputs": [
        {
          "internalType": "uint256",
          "name": "order_id",
          "type": "uint256"
        },
        {
          "internalType": "bytes32",
          "name": "hash",
          "type": "bytes32"
        }
      ],
      "name": "receive_transfer_asset",
      "outputs": [],
      "stateMutability": "nonpayable",
      "type": "function"
    },
    {
      "inputs": [
        {
          "internalType": "string",
          "name": "_funcName",
          "type": "string"
        },
        {
          "internalType": "string",
          "name": "_toChain",
          "type": "string"
        },
        {
          "internalType": "string",
          "name": "_contractAddress",
          "type": "string"
        },
        {
          "internalType": "string",
          "name": "_contractFuncName",
          "type": "string"
        }
      ],
      "name": "registerDestnContract",
      "outputs": [],
      "stateMutability": "nonpayable",
      "type": "function"
    },
    {
      "inputs": [
        {
          "internalType": "string",
          "name": "_chainName",
          "type": "string"
        },
        {
          "internalType": "string",
          "name": "_sender",
          "type": "string"
        },
        {
          "internalType": "string",
          "name": "_funcName",
          "type": "string"
        }
      ],
      "name": "registerPermittedContract",
      "outputs": [],
      "stateMutability": "nonpayable",
      "type": "function"
    },
    {
      "inputs": [
        {
          "internalType": "string",
          "name": "_chainName",
          "type": "string"
        },
        {
          "internalType": "string",
          "name": "_funcName",
          "type": "string"
        },
        {
          "internalType": "string",
          "name": "_sender",
          "type": "string"
        }
      ],
      "name": "verify",
      "outputs": [
        {
          "internalType": "bool",
          "name": "",
          "type": "bool"
        }
      ],
      "stateMutability": "view",
      "type": "function"
    }
  ],
  "bytecode": "0x60806040523480156200001157600080fd5b5062000026620000206200002c565b62000030565b62000080565b3390565b600080546001600160a01b038381166001600160a01b0319831681178455604051919092169283917f8be0079c531659141344cd1fd0a4f28419497f9722a3daafe3b4186f6b6457e09190a35050565b61358980620000906000396000f3fe608060405234801561001057600080fd5b506004361061018e5760003560e01c806379f6793c116100de578063babe5dd611610097578063d975a60811610071578063d975a608146103ae578063dbc90de1146103c1578063f2fde38b146103c9578063ff96254b146103dc5761018e565b8063babe5dd614610375578063bb45acd914610388578063d46927031461039b5761018e565b806379f6793c146102cd57806380899bba146102e05780638da5cb5b146103025780638f1ec88f14610317578063a5c0621014610342578063ac95d830146103555761018e565b80632639c4231161014b5780635d45397d116101255780635d45397d1461027f5780635fe78c6c1461029257806366e1f820146102b2578063715018a6146102c55761018e565b80632639c423146102145780633ad16b7a146102355780633b6c9e26146102555761018e565b80630bec7e7c14610193578063127f0f07146101a857806318d72b54146101c65780631ff05bcd146101d9578063246da888146101ec57806325a435de14610201575b600080fd5b6101a66101a1366004612a91565b6103ef565b005b6101b06103f2565b6040516101bd91906131f7565b60405180910390f35b6101a66101d4366004612417565b610489565b6101a66101e7366004612aa9565b6104f3565b6101f461061c565b6040516101bd9190612dc1565b6101a661020f366004612b0d565b610930565b61022761022236600461246b565b610934565b6040516101bd929190612f9e565b610248610243366004612518565b610a6b565b6040516101bd91906131be565b610268610263366004612a91565b610bf3565b6040516101bd9b9a9998979695949392919061339d565b6101a661028d366004612b2e565b610d6f565b6102a56102a0366004612864565b610e89565b6040516101bd9190612f8b565b6101a66102c03660046124b0565b610f2e565b6101a6610fdb565b6101a66102db366004612518565b611026565b6102f36102ee366004612931565b6110b6565b6040516101bd93929190612fcc565b61030a611213565b6040516101bd9190612d70565b61032a610325366004612a91565b611222565b6040516101bd9c9b9a999897969594939291906132d0565b6101a6610350366004612755565b611432565b610368610363366004612896565b6118ac565b6040516101bd9190612ee9565b6101a66103833660046125ad565b611b57565b6102a5610396366004612931565b611c12565b6101a66103a936600461266b565b611c53565b6101a66103bc3660046127dc565b611d9b565b61030a611fd1565b6101a66103d7366004612417565b611fe0565b6103686103ea366004612518565b61204e565b50565b6103fa6120bf565b600360009054906101000a90046001600160a01b03166001600160a01b0316639af7a48c6040518163ffffffff1660e01b815260040160006040518083038186803b15801561044857600080fd5b505afa15801561045c573d6000803e3d6000fd5b505050506040513d6000823e601f3d908101601f191682016040526104849190810190612991565b905090565b61049161205a565b6001600160a01b03166104a2611213565b6001600160a01b0316146104d15760405162461bcd60e51b81526004016104c8906130ad565b60405180910390fd5b600380546001600160a01b0319166001600160a01b0392909216919091179055565b6003546001600160a01b0316331461051d5760405162461bcd60e51b81526004016104c890613152565b60006105276103f2565b905060006005826020015160405161053f9190612cd3565b90815260200160405180910390209050816040015180519060200120818360c0015160405161056e9190612cd3565b90815260405190819003602001812061058691612cef565b6040518091039020146105ab5760405162461bcd60e51b81526004016104c8906130e2565b600088815260066020818152604092839020835180850190945282845265131bd8dad95960d21b93909101928352916105e991600a84019190612102565b5060068101939093555050600b0180546001600160a01b0319166001600160a01b03959095169490941790935550505050565b6060600061062a600761205e565b90506000816001600160401b0381111561065457634e487b7160e01b600052604160045260246000fd5b60405190808252806020026020018201604052801561068d57816020015b61067a612186565b8152602001906001900390816106725790505b50905060005b82811015610929576000818152600660208181526040928390208351610180810185528154815260018201546001600160a01b039081169382019390935260028201548316948101949094526003810154909116606084015260048101546080840152600581015460a08401529081015460c0830152600781015460e0830152600881018054919291839161010084019161072d906134bc565b80601f0160208091040260200160405190810160405280929190818152602001828054610759906134bc565b80156107a65780601f1061077b576101008083540402835291602001916107a6565b820191906000526020600020905b81548152906001019060200180831161078957829003601f168201915b505050505081526020016009820180546107bf906134bc565b80601f01602080910402602001604051908101604052809291908181526020018280546107eb906134bc565b80156108385780601f1061080d57610100808354040283529160200191610838565b820191906000526020600020905b81548152906001019060200180831161081b57829003601f168201915b50505050508152602001600a82018054610851906134bc565b80601f016020809104026020016040519081016040528092919081815260200182805461087d906134bc565b80156108ca5780601f1061089f576101008083540402835291602001916108ca565b820191906000526020600020905b8154815290600101906020018083116108ad57829003601f168201915b5050509183525050600b91909101546001600160a01b0316602090910152835184908490811061090a57634e487b7160e01b600052603260045260246000fd5b6020026020010181905250508080610921906134f7565b915050610693565b5091505090565b5050565b805160208183018101805160018252928201919093012091528054819061095a906134bc565b80601f0160208091040260200160405190810160405280929190818152602001828054610986906134bc565b80156109d35780601f106109a8576101008083540402835291602001916109d3565b820191906000526020600020905b8154815290600101906020018083116109b657829003601f168201915b5050505050908060010180546109e8906134bc565b80601f0160208091040260200160405190810160405280929190818152602001828054610a14906134bc565b8015610a615780601f10610a3657610100808354040283529160200191610a61565b820191906000526020600020905b815481529060010190602001808311610a4457829003601f168201915b5050505050905082565b610a7361220e565b6001878787878787604051602001610a9096959493929190612d0b565b60408051601f1981840301815290829052610aaa91612cd3565b9081526020016040518091039020604051806040016040529081600082018054610ad3906134bc565b80601f0160208091040260200160405190810160405280929190818152602001828054610aff906134bc565b8015610b4c5780601f10610b2157610100808354040283529160200191610b4c565b820191906000526020600020905b815481529060010190602001808311610b2f57829003601f168201915b50505050508152602001600182018054610b65906134bc565b80601f0160208091040260200160405190810160405280929190818152602001828054610b91906134bc565b8015610bde5780601f10610bb357610100808354040283529160200191610bde565b820191906000526020600020905b815481529060010190602001808311610bc157829003601f168201915b50505050508152505090509695505050505050565b60086020526000908152604090208054600182018054919291610c15906134bc565b80601f0160208091040260200160405190810160405280929190818152602001828054610c41906134bc565b8015610c8e5780601f10610c6357610100808354040283529160200191610c8e565b820191906000526020600020905b815481529060010190602001808311610c7157829003601f168201915b50505060028401546003850154600486015460058701546006880154600789015460088a015460098b0180549a9b6001600160a01b039889169b9789169a5095985093969295919492169290610ce3906134bc565b80601f0160208091040260200160405190810160405280929190818152602001828054610d0f906134bc565b8015610d5c5780601f10610d3157610100808354040283529160200191610d5c565b820191906000526020600020905b815481529060010190602001808311610d3f57829003601f168201915b505050600a909301549192505060ff168b565b6000610d7b600961205e565b905060005b81811015610e815760008181526008602052604090208054871415610e6e57600381015460048083015460405163a9059cbb60e01b81526000936001600160a01b03169263a9059cbb92610dd6928a9201612da8565b602060405180830381600087803b158015610df057600080fd5b505af1158015610e04573d6000803e3d6000fd5b505050506040513d601f19601f82011682018060405250810190610e289190612433565b60408051808201909152600480825263446f6e6560e01b6020909201918252919250610e5991600985019190612102565b50600a8201805460ff19169115159190911790555b5080610e79816134f7565b915050610d80565b505050505050565b805160208183018101805160028252928201919093012091528054610ead906134bc565b80601f0160208091040260200160405190810160405280929190818152602001828054610ed9906134bc565b8015610f265780601f10610efb57610100808354040283529160200191610f26565b820191906000526020600020905b815481529060010190602001808311610f0957829003601f168201915b505050505081565b610f3661205a565b6001600160a01b0316610f47611213565b6001600160a01b031614610f6d5760405162461bcd60e51b81526004016104c8906130ad565b6003546040516321c0551d60e11b81526001600160a01b0390911690634380aa3a90610fa3908790879087908790600401612ef4565b600060405180830381600087803b158015610fbd57600080fd5b505af1158015610fd1573d6000803e3d6000fd5b5050505050505050565b610fe361205a565b6001600160a01b0316610ff4611213565b6001600160a01b03161461101a5760405162461bcd60e51b81526004016104c8906130ad565b6110246000612066565b565b61102e61205a565b6001600160a01b031661103f611213565b6001600160a01b0316146110655760405162461bcd60e51b81526004016104c8906130ad565b600060058787604051611079929190612cfb565b90815260200160405180910390209050848482858560405161109c929190612cfb565b908152604051908190036020019020610fd1929091612228565b815160208184018101805160048252928201948201949094209190935281518083018401805192815290840192909301919091209152805481906110f9906134bc565b80601f0160208091040260200160405190810160405280929190818152602001828054611125906134bc565b80156111725780601f1061114757610100808354040283529160200191611172565b820191906000526020600020905b81548152906001019060200180831161115557829003601f168201915b505050505090806001018054611187906134bc565b80601f01602080910402602001604051908101604052809291908181526020018280546111b3906134bc565b80156112005780601f106111d557610100808354040283529160200191611200565b820191906000526020600020905b8154815290600101906020018083116111e357829003601f168201915b5050506002909301549192505060ff1683565b6000546001600160a01b031690565b600660208190526000918252604090912080546001820154600283015460038401546004850154600586015496860154600787015460088801805497996001600160a01b039788169996881698979095169693959293919291611284906134bc565b80601f01602080910402602001604051908101604052809291908181526020018280546112b0906134bc565b80156112fd5780601f106112d2576101008083540402835291602001916112fd565b820191906000526020600020905b8154815290600101906020018083116112e057829003601f168201915b505050505090806009018054611312906134bc565b80601f016020809104026020016040519081016040528092919081815260200182805461133e906134bc565b801561138b5780601f106113605761010080835404028352916020019161138b565b820191906000526020600020905b81548152906001019060200180831161136e57829003601f168201915b50505050509080600a0180546113a0906134bc565b80601f01602080910402602001604051908101604052809291908181526020018280546113cc906134bc565b80156114195780601f106113ee57610100808354040283529160200191611419565b820191906000526020600020905b8154815290600101906020018083116113fc57829003601f168201915b505050600b90930154919250506001600160a01b03168c565b6040516323b872dd60e01b81526001600160a01b038616906323b872dd9061146290339030908990600401612d84565b602060405180830381600087803b15801561147c57600080fd5b505af1158015611490573d6000803e3d6000fd5b505050506040513d601f19601f820116820180604052508101906114b49190612433565b6114d05760405162461bcd60e51b81526004016104c890613187565b60006114dc600961205e565b90506040518061016001604052808881526020018a8a8080601f016020809104026020016040519081016040528093929190818152602001838380828437600092019190915250505090825250336020808301919091526001600160a01b0389166040808401919091526060830189905251608090920191600291611565918891889101612cfb565b60408051601f198184030181529082905261157f91612cd3565b602060405180830381855afa15801561159c573d6000803e3d6000fd5b5050506040513d601f19601f820116820180604052508101906115bf9190612453565b815260200142815260200142610e106115d89190613474565b81526001600160a01b038616602080830191909152604080518082018252600781526618dc99585d195960ca1b8184015281840152600060609093018390528483526008825290912082518155828201518051919261163f92600185019290910190612102565b5060408201516002820180546001600160a01b039283166001600160a01b03199182161790915560608401516003840180549184169183169190911790556080840151600484015560a0840151600584015560c0840151600684015560e0840151600784015561010084015160088401805491909316911617905561012082015180516116d6916009840191602090910190612102565b506101409190910151600a909101805460ff19169115159190911790556116fd60096120b6565b600060048a8a604051611711929190612cfb565b9081526020016040518091039020905060008160405161173090612d34565b908152604051908190036020019020600281015490915060ff166117665760405162461bcd60e51b81526004016104c890613123565b600089338a33600160028b8b604051602001611783929190612cfb565b60408051601f198184030181529082905261179d91612cd3565b602060405180830381855afa1580156117ba573d6000803e3d6000fd5b5050506040513d601f19601f820116820180604052508101906117dd9190612453565b6040516020016117f296959493929190613299565b604051602081830303815290604052905060006040518060200160405280600060ff168152509050600360009054906101000a90046001600160a01b03166001600160a01b031663ef565bbf8e8e866000018760010186886040518763ffffffff1660e01b815260040161186b96959493929190612f26565b600060405180830381600087803b15801561188557600080fd5b505af1158015611899573d6000803e3d6000fd5b5050505050505050505050505050505050565b6040516323b872dd60e01b81526000906001600160a01b038716906323b872dd906118df90339030908a90600401612d84565b602060405180830381600087803b1580156118f957600080fd5b505af115801561190d573d6000803e3d6000fd5b505050506040513d601f19601f820116820180604052508101906119319190612433565b61194d5760405162461bcd60e51b81526004016104c890613187565b6000611959600761205e565b9050604051806101800160405280828152602001336001600160a01b03168152602001886001600160a01b03168152602001856001600160a01b031681526020018781526020018481526020016000801b81526020014281526020018981526020018681526020016040518060400160405280600481526020016327b832b760e11b815250815260200160006001600160a01b0316815250600660008381526020019081526020016000206000820151816000015560208201518160010160006101000a8154816001600160a01b0302191690836001600160a01b0316021790555060408201518160020160006101000a8154816001600160a01b0302191690836001600160a01b0316021790555060608201518160030160006101000a8154816001600160a01b0302191690836001600160a01b031602179055506080820151816004015560a0820151816005015560c0820151816006015560e08201518160070155610100820151816008019080519060200190611ada929190612102565b506101208201518051611af7916009840191602090910190612102565b506101408201518051611b1491600a840191602090910190612102565b506101609190910151600b90910180546001600160a01b0319166001600160a01b03909216919091179055611b4960076120b6565b506001979650505050505050565b611b5f61205a565b6001600160a01b0316611b70611213565b6001600160a01b031614611b965760405162461bcd60e51b81526004016104c8906130ad565b600060048787604051611baa929190612cfb565b908152602001604051809103902090506000818a8a604051611bcd929190612cfb565b9081526040519081900360200190209050611be9818787612228565b50611bf8600182018585612228565b50600201805460ff19166001179055505050505050505050565b8151602081840181018051600582529282019482019490942091909352815180830184018051928152908401929093019190912091528054610ead906134bc565b611c5b61205a565b6001600160a01b0316611c6c611213565b6001600160a01b031614611c925760405162461bcd60e51b81526004016104c8906130ad565b6040805160606020601f8701819004028201810183529181018581526000928291908890889081908501838280828437600092019190915250505090825250604080516020601f87018190048102820181019092528581529181019190869086908190840183828082843760009201919091525050509152506040519091508190600190611d2e908e908e908e908e908e908e90602001612d0b565b60408051601f1981840301815290829052611d4891612cd3565b90815260200160405180910390206000820151816000019080519060200190611d72929190612102565b506020828101518051611d8b9260018501920190612102565b5050505050505050505050505050565b600060028484604051602001611db2929190612cfb565b60408051601f1981840301815290829052611dcc91612cd3565b602060405180830381855afa158015611de9573d6000803e3d6000fd5b5050506040513d601f19601f82011682018060405250810190611e0c9190612453565b600086815260066020819052604090912090810154919250908214611e3057600080fd5b60408051808201909152600480825263446f6e6560e01b6020909201918252611e5d91600a840191612102565b50600281015460048083015460405163a9059cbb60e01b81526000936001600160a01b03169263a9059cbb92611e9592339201612da8565b602060405180830381600087803b158015611eaf57600080fd5b505af1158015611ec3573d6000803e3d6000fd5b505050506040513d601f19601f82011682018060405250810190611ee79190612433565b90506000600483600901604051611efe9190612cef565b90815260200160405180910390209050600081604051611f1d90612d53565b908152604051908190036020019020600281015490915060ff16611f535760405162461bcd60e51b81526004016104c890613123565b6001840154604051600091611f7a918c918c918c916001600160a01b03169060200161336a565b60408051601f1981840301815260208301825260008352600354915163ef565bbf60e01b81529093506001600160a01b039091169063ef565bbf9061186b9060098a01908790600182019087908990600401613004565b6003546001600160a01b031681565b611fe861205a565b6001600160a01b0316611ff9611213565b6001600160a01b03161461201f5760405162461bcd60e51b81526004016104c8906130ad565b6001600160a01b0381166120455760405162461bcd60e51b81526004016104c890613067565b6103ef81612066565b60019695505050505050565b3390565b80545b919050565b600080546001600160a01b038381166001600160a01b0319831681178455604051919092169283917f8be0079c531659141344cd1fd0a4f28419497f9722a3daafe3b4186f6b6457e09190a35050565b80546001019055565b6040518060e00160405280600081526020016060815260200160608152602001606081526020016120ee61229c565b815260006020820152606060409091015290565b82805461210e906134bc565b90600052602060002090601f0160209004810192826121305760008555612176565b82601f1061214957805160ff1916838001178555612176565b82800160010185558215612176579182015b8281111561217657825182559160200191906001019061215b565b506121829291506122ae565b5090565b6040518061018001604052806000815260200160006001600160a01b0316815260200160006001600160a01b0316815260200160006001600160a01b031681526020016000815260200160008152602001600080191681526020016000815260200160608152602001606081526020016060815260200160006001600160a01b031681525090565b604051806040016040528060608152602001606081525090565b828054612234906134bc565b90600052602060002090601f0160209004810192826122565760008555612176565b82601f1061226f5782800160ff19823516178555612176565b82800160010185558215612176579182015b82811115612176578235825591602001919060010190612281565b60408051602081019091526000815290565b5b8082111561218257600081556001016122af565b60006122d66122d18461344d565b613424565b90508281528383830111156122ea57600080fd5b828260208301376000602084830101529392505050565b80516120618161353e565b60008083601f84011261231d578182fd5b5081356001600160401b03811115612333578182fd5b60208301915083602082850101111561234b57600080fd5b9250929050565b600082601f830112612362578081fd5b612371838335602085016122c3565b9392505050565b600082601f830112612388578081fd5b81516123966122d18261344d565b8181528460208386010111156123aa578283fd5b6123bb82602083016020870161348c565b949350505050565b6000602082840312156123d4578081fd5b604051602081018181106001600160401b03821117156123f6576123f6613528565b8060405250809150825160ff8116811461240f57600080fd5b905292915050565b600060208284031215612428578081fd5b81356123718161353e565b600060208284031215612444578081fd5b81518015158114612371578182fd5b600060208284031215612464578081fd5b5051919050565b60006020828403121561247c578081fd5b81356001600160401b03811115612491578182fd5b8201601f810184136124a1578182fd5b6123bb848235602084016122c3565b600080600080604085870312156124c5578283fd5b84356001600160401b03808211156124db578485fd5b6124e78883890161230c565b909650945060208701359150808211156124ff578384fd5b5061250c8782880161230c565b95989497509550505050565b60008060008060008060608789031215612530578182fd5b86356001600160401b0380821115612546578384fd5b6125528a838b0161230c565b9098509650602089013591508082111561256a578384fd5b6125768a838b0161230c565b9096509450604089013591508082111561258e578384fd5b5061259b89828a0161230c565b979a9699509497509295939492505050565b6000806000806000806000806080898b0312156125c8578182fd5b88356001600160401b03808211156125de578384fd5b6125ea8c838d0161230c565b909a50985060208b0135915080821115612602578384fd5b61260e8c838d0161230c565b909850965060408b0135915080821115612626578384fd5b6126328c838d0161230c565b909650945060608b013591508082111561264a578384fd5b506126578b828c0161230c565b999c989b5096995094979396929594505050565b60008060008060008060008060008060a08b8d031215612689578384fd5b8a356001600160401b038082111561269f578586fd5b6126ab8e838f0161230c565b909c509a5060208d01359150808211156126c3578586fd5b6126cf8e838f0161230c565b909a50985060408d01359150808211156126e7578586fd5b6126f38e838f0161230c565b909850965060608d013591508082111561270b578586fd5b6127178e838f0161230c565b909650945060808d013591508082111561272f578384fd5b5061273c8d828e0161230c565b915080935050809150509295989b9194979a5092959850565b60008060008060008060008060c0898b031215612770578182fd5b88356001600160401b0380821115612786578384fd5b6127928c838d0161230c565b909a50985060208b0135975060408b013591506127ae8261353e565b90955060608a0135945060808a0135906127c78261353e565b90935060a08a0135908082111561264a578384fd5b600080600080600080608087890312156127f4578384fd5b86356001600160401b038082111561280a578586fd5b6128168a838b0161230c565b9098509650602089013595506040890135915080821115612835578384fd5b5061284289828a0161230c565b90945092505060608701356128568161353e565b809150509295509295509295565b600060208284031215612875578081fd5b81356001600160401b0381111561288a578182fd5b6123bb84828501612352565b60008060008060008060c087890312156128ae578384fd5b86356001600160401b03808211156128c4578586fd5b6128d08a838b01612352565b9750602089013591506128e28261353e565b90955060408801359450606088013590808211156128fe578384fd5b5061290b89828a01612352565b935050608087013561291c8161353e565b8092505060a087013590509295509295509295565b60008060408385031215612943578182fd5b82356001600160401b0380821115612959578384fd5b61296586838701612352565b9350602085013591508082111561297a578283fd5b5061298785828601612352565b9150509250929050565b6000602082840312156129a2578081fd5b81516001600160401b03808211156129b8578283fd5b9083019060e082860312156129cb578283fd5b6129d560e0613424565b825181526020830151828111156129ea578485fd5b6129f687828601612378565b602083015250604083015182811115612a0d578485fd5b612a1987828601612378565b604083015250606083015182811115612a30578485fd5b612a3c87828601612378565b606083015250612a4f86608085016123c3565b6080820152612a6060a08401612301565b60a082015260c083015182811115612a76578485fd5b612a8287828601612378565b60c08301525095945050505050565b600060208284031215612aa2578081fd5b5035919050565b60008060008060008060c08789031215612ac1578384fd5b863595506020870135612ad38161353e565b94506040870135612ae38161353e565b93506060870135612af38161353e565b9598949750929560808101359460a0909101359350915050565b60008060408385031215612b1f578182fd5b50508035926020909101359150565b60008060008060608587031215612b43578182fd5b8435935060208501356001600160401b03811115612b5f578283fd5b612b6b8782880161230c565b9094509250506040850135612b7f8161353e565b939692955090935050565b6001600160a01b03169052565b60008151808452612baf81602086016020860161348c565b601f01601f19169290920160200192915050565b60008154612bd0816134bc565b60018281168015612be85760018114612bf957612c28565b60ff19841687528287019450612c28565b8560005260208060002060005b85811015612c1f5781548a820152908401908201612c06565b50505082870194505b5050505092915050565b60008284528282602086013780602084860101526020601f19601f85011685010190509392505050565b60008154612c69816134bc565b808552602060018381168015612c865760018114612c9a57612cc8565b60ff19851688840152604088019550612cc8565b866000528260002060005b85811015612cc05781548a8201860152908301908401612ca5565b890184019650505b505050505092915050565b60008251612ce581846020870161348c565b9190910192915050565b60006123718284612bc3565b6000828483379101908152919050565b600086888337868201818152858782378501818152838582379092019182525095945050505050565b723932b1b2b4bb32afb6b0ba31b42fb7b93232b960691b815260130190565b701c9958dd97dd5b9b1bd8dad7d85cdcd95d607a1b815260110190565b6001600160a01b0391909116815260200190565b6001600160a01b039384168152919092166020820152604081019190915260600190565b6001600160a01b03929092168252602082015260400190565b60208082528251828201819052600091906040908185019080840286018301878501865b83811015612edb57603f1989840301855281516101808151855288820151612e0f8a870182612b8a565b5087820151612e2089870182612b8a565b50606080830151612e3382880182612b8a565b50506080828101519086015260a0808301519086015260c0808301519086015260e0808301519086015261010080830151818701839052612e7683880182612b97565b925050506101208083015186830382880152612e928382612b97565b925050506101408083015186830382880152612eae8382612b97565b92505050610160808301519250612ec781870184612b8a565b509588019593505090860190600101612de5565b509098975050505050505050565b901515815260200190565b600060408252612f08604083018688612c32565b8281036020840152612f1b818587612c32565b979650505050505050565b600060a08252612f3a60a08301888a612c32565b8281036020840152612f4c8188612c5c565b90508281036040840152612f608187612c5c565b905060ff85511660608401528281036080840152612f7e8185612b97565b9998505050505050505050565b6000602082526123716020830184612b97565b600060408252612fb16040830185612b97565b8281036020840152612fc38185612b97565b95945050505050565b600060608252612fdf6060830186612b97565b8281036020840152612ff18186612b97565b9150508215156040830152949350505050565b600060a0825261301760a0830188612c5c565b82810360208401526130298188612c5c565b9050828103604084015261303d8187612c5c565b905060ff8551166060840152828103608084015261305b8185612b97565b98975050505050505050565b60208082526026908201527f4f776e61626c653a206e6577206f776e657220697320746865207a65726f206160408201526564647265737360d01b606082015260800190565b6020808252818101527f4f776e61626c653a2063616c6c6572206973206e6f7420746865206f776e6572604082015260600190565b60208082526021908201527f6d6573736167652073656e646572206973206e6f7420726567697374657265646040820152602160f81b606082015260800190565b6020808252601590820152741858dd1a5bdb881b9bdd081c9959da5cdd195c9959605a1b604082015260600190565b6020808252818101527f4c6f636b65723a2063616c6c6572206973206e6f742043726f7373436861696e604082015260600190565b60208082526017908201527f7472616e7366657220746f2073776170206661696c6564000000000000000000604082015260600190565b6000602082528251604060208401526131da6060840182612b97565b90506020840151601f19848303016040850152612fc38282612b97565b60006020825282516020830152602083015160e0604084015261321e610100840182612b97565b90506040840151601f198085840301606086015261323c8383612b97565b925060608601519150808584030160808601526132598383612b97565b925060ff6080870151511660a086015260a0860151915061327d60c0860183612b8a565b60c08601519150808584030160e086015250612fc38282612b97565b9586526001600160a01b03948516602087015292841660408601529216606084015260ff909116608083015260a082015260c00190565b60006101808e835260018060a01b03808f166020850152808e166040850152808d1660608501528b60808501528a60a08501528960c08501528860e08501528161010085015261332282850189612b97565b91508382036101208501526133378288612b97565b915083820361014085015261334c8287612b97565b925080851661016085015250509d9c50505050505050505050505050565b600085825260606020830152613384606083018587612c32565b905060018060a01b038316604083015295945050505050565b60006101608d83528060208401526133b78184018e612b97565b6001600160a01b038d811660408601528c81166060860152608085018c905260a085018b905260c085018a905260e08501899052871661010085015283810361012085015290506134088186612b97565b9150508215156101408301529c9b505050505050505050505050565b6040518181016001600160401b038111828210171561344557613445613528565b604052919050565b60006001600160401b0382111561346657613466613528565b50601f01601f191660200190565b6000821982111561348757613487613512565b500190565b60005b838110156134a757818101518382015260200161348f565b838111156134b6576000848401525b50505050565b6002810460018216806134d057607f821691505b602082108114156134f157634e487b7160e01b600052602260045260246000fd5b50919050565b600060001982141561350b5761350b613512565b5060010190565b634e487b7160e01b600052601160045260246000fd5b634e487b7160e01b600052604160045260246000fd5b6001600160a01b03811681146103ef57600080fdfea26469706673582212205fdc3e048fbb8fb954ca27a4690fdacf18a9efc1f16903c06a2e34236235a14964736f6c63430008000033",
  "immutableReferences": {},
  "source": "// SPDX-License-Identifier: MIT\npragma solidity 0.8.0;\n\nimport \"@openzeppelin/contracts/token/ERC20/IERC20.sol\";\nimport \"./CrossChain/ContractBase.sol\";\nimport '@openzeppelin/contracts/utils/Counters.sol';\n\ncontract Swap is ContractBase {\n    using Counters for Counters.Counter;\n\n    // Destination contract info\n    struct DestnContract {\n        string contractAddress; // destination contract address\n        string funcName; // destination contract action name\n        bool used;\n    }\n\n    struct Order {\n        uint256 orderId;\n        address sender;\n        address tokenContract;\n        address toTokenContract;\n        uint256 amount;\n        uint256 toAmount;\n        bytes32 hashlock;\n        uint256 createTime;\n        string fromChainId;\n        string toChainId;\n        string status;\n        address payee;\n    }\n\n    struct OrderFill {\n        uint256 orderId;\n        string fromChainId;\n        address sender;\n        address tokenContract;\n        uint256 amount;\n        bytes32 hashlock;\n        uint256 createTime;\n        uint256 timelock; // locked UNTIL this time.\n        address payee;\n        string status;\n        bool transfer;\n    }\n\n    // Cross-chain destination contract map\n    mapping(string => mapping(string => DestnContract)) public destnContractMap;\n\n    // Cross-chain permitted contract map\n    mapping(string => mapping(string => string)) public permittedContractMap;\n\n    mapping(uint256 => Order) public idToOrder;\n    Counters.Counter _orderIds;\n\n    mapping(uint256 => OrderFill) public idToFillOrder;\n    Counters.Counter _fillOrderIds;\n\n    constructor() public {}\n\n    function create_order(\n        string memory chain_from,\n        address asset_from,\n        uint256 amount_from,\n        string memory chain_to,\n        address asset_to,\n        uint256 amount_to\n    ) public returns (bool) {\n        require(IERC20(asset_from).transferFrom(msg.sender,\n            address(this),\n            amount_from\n        ), \"transfer to swap failed\");\n        uint256 orderId = _orderIds.current();\n        idToOrder[orderId] = Order(\n            orderId,\n            msg.sender,\n            asset_from,\n            asset_to,\n            amount_from,\n            amount_to,\n            bytes32(0),\n            block.timestamp,\n            chain_from,\n            chain_to,\n            \"Open\",\n            address(0)\n        );\n        _orderIds.increment();\n        return true;\n    }\n\n    function query_order(uint256 order_id) public {}\n\n    function query_all_orders() public view returns (Order[] memory) {\n        uint256 orderCount = _orderIds.current();\n        Order[] memory orders = new Order[](orderCount);\n        for (uint256 i = 0; i < orderCount; i++) {\n            Order storage order = idToOrder[i];\n            orders[i] = order;\n        }\n        return orders;\n    }\n\n    function match_order(\n        string calldata chain_id, // source chain id\n        uint256 order_id,\n        address asset,\n        uint256 amount, \n        address payee,\n        string calldata hashkey\n    ) public {\n        require(IERC20(asset).transferFrom(msg.sender, address(this), amount), \"transfer to swap failed\");\n        uint256 _fillOrderId = _fillOrderIds.current();\n        idToFillOrder[_fillOrderId] = OrderFill(\n            order_id,\n            chain_id,\n            msg.sender,\n            asset,\n            amount,\n            sha256(abi.encodePacked(hashkey)),\n            block.timestamp,\n            block.timestamp + 3600,\n            payee,\n            \"created\",\n            false\n        );\n        _fillOrderIds.increment();\n\n        mapping(string => DestnContract) storage map = destnContractMap[\n            chain_id\n        ];\n        DestnContract storage destnContract = map[\"receive_match_order\"];\n        require(destnContract.used, \"action not registered\");\n\n        bytes memory data = abi.encode(order_id, msg.sender, asset, msg.sender, 1, sha256(abi.encodePacked(hashkey)));\n        SQOS memory sqos = SQOS(0);\n        crossChainContract.sendMessage(\n            chain_id,\n            destnContract.contractAddress,\n            destnContract.funcName,\n            sqos,\n            data\n        );\n    }\n\n    function receive_match_order(\n        uint256 order_id,\n        address payee_address,\n        address from_chain_payee,\n        address from_chain_asset,\n        uint256 amount,\n        bytes32 hash\n    ) public {\n        require(\n            msg.sender == address(crossChainContract),\n            \"Locker: caller is not CrossChain\"\n        );\n\n        // `context` used for verify the operation authority\n        SimplifiedMessage memory context = getContext();\n        // verify sqos\n        // require(context.sqos.reveal == 1, \"SQoS invalid!\");\n\n        // verify the sender from the registered chain\n        mapping(string => string)\n            storage permittedContract = permittedContractMap[context.fromChain];\n\n        require(\n            keccak256(bytes(permittedContract[context.action])) ==\n                keccak256(bytes(context.sender)),\n            \"message sender is not registered!\"\n        );\n\n        Order storage order = idToOrder[order_id];\n        order.status = \"Locked\";\n        order.hashlock = hash;\n        order.payee = payee_address;\n    }\n\n    function unlock_asset(\n        string calldata chain_id, // unused\n        uint256 order_id, \n        string calldata hashkey,\n        address payee_address // unused\n     ) public {\n        bytes32 hash = sha256(abi.encodePacked(hashkey));\n        Order storage order = idToOrder[order_id];\n        require(order.hashlock == hash);\n        order.status = \"Done\";\n\n        bool ret = IERC20(order.tokenContract).transfer(\n            msg.sender,\n            order.amount\n        );\n\n        mapping(string => DestnContract) storage map = destnContractMap[\n            order.toChainId\n        ];\n        DestnContract storage destnContract = map[\"recv_unlock_asset\"];\n        require(destnContract.used, \"action not registered\");\n\n        bytes memory data = abi.encode(order_id, hashkey, order.sender);\n        SQOS memory sqos = SQOS(0);\n        crossChainContract.sendMessage(\n            order.toChainId,\n            destnContract.contractAddress,\n            destnContract.funcName,\n            sqos,\n            data\n        );\n    }\n\n    function recv_unlock_asset(uint256 order_id, string calldata hashkey, address payee_address) public {\n        uint256 orderCount = _fillOrderIds.current();\n        for (uint256 i = 0; i < orderCount; i++) {\n            OrderFill storage order = idToFillOrder[i];\n            if (order.orderId == order_id){\n                bool ret = IERC20(order.tokenContract).transfer(payee_address, order.amount);\n                order.status = \"Done\";\n                order.transfer = ret;\n            }\n        }\n    }\n\n    function receive_transfer_asset(uint256 order_id, bytes32 hash) public {\n        // uint256 orderCount = _fillOrderIds.current();\n        // for (uint256 i = 0; i < orderCount; i++) {\n        //     OrderFill storage order = idToFillOrder[i];\n        //     if (order.orderId == order_id){\n        //         bool ret = IERC20(order.tokenContract).transfer(order.payee, order.amount);\n        //         order.status = \"Done\";\n        //         order.transfer = ret;\n        //     }\n        // }\n    }\n\n    function registerDestnContract(\n        string calldata _funcName,\n        string calldata _toChain,\n        string calldata _contractAddress,\n        string calldata _contractFuncName\n    ) external onlyOwner {\n        mapping(string => DestnContract) storage map = destnContractMap[\n            _toChain\n        ];\n        DestnContract storage destnContract = map[_funcName];\n        destnContract.contractAddress = _contractAddress;\n        destnContract.funcName = _contractFuncName;\n        destnContract.used = true;\n    }\n\n    function registerPermittedContract(\n        string calldata _chainName,\n        string calldata _sender,\n        string calldata _funcName\n    ) external onlyOwner {\n        mapping(string => string) storage map = permittedContractMap[\n            _chainName\n        ];\n        map[_funcName] = _sender;\n    }\n\n    function verify(\n        string calldata _chainName,\n        string calldata _funcName,\n        string calldata _sender\n    ) public view virtual returns (bool) {\n        return true;\n    }\n}",
  "sourcePath": "/Users/fsy412/code/Demo-Swap/contracts/Swap.sol",
  "compiler": {
    "name": "solc",
    "version": "0.8.0+commit.c7dfd78e.Emscripten.clang"
  },
  "schemaVersion": "3.4.6",
  "updatedAt": "2022-05-27T04:02:17.720Z",
  "devdoc": {
    "kind": "dev",
    "methods": {
      "getMessageABI(string,string,string)": {
        "params": {
          "_destnChainName": "- destination chain name",
          "_destnContractName": "- destination contract name",
          "_funcName": "- destination contract function name"
        }
      },
      "owner()": {
        "details": "Returns the address of the current owner."
      },
      "registerContractABI(string,string)": {
        "params": {
          "_contractABI": "- contract action abi",
          "_funcName": "- contract action name"
        }
      },
      "registerMessageABI(string,string,string,string,string)": {
        "params": {
          "_destnChainName": "- destination chain name",
          "_destnContractName": "- destination contract name",
          "_funcName": "- destination contract function name",
          "_paramName": "- action param name",
          "_paramType": "- action param types"
        }
      },
      "renounceOwnership()": {
        "details": "Leaves the contract without owner. It will not be possible to call `onlyOwner` functions anymore. Can only be called by the current owner. NOTE: Renouncing ownership will leave the contract without an owner, thereby removing any functionality that is only available to the owner."
      },
      "setCrossChainContract(address)": {
        "params": {
          "_address": "- cross chain contract address"
        }
      },
      "transferOwnership(address)": {
        "details": "Transfers ownership of the contract to a new account (`newOwner`). Can only be called by the current owner."
      }
    },
    "version": 1
  },
  "userdoc": {
    "kind": "user",
    "methods": {
      "getMessageABI(string,string,string)": {
        "notice": "Get Registered message ABI to encode/decode message"
      },
      "registerContractABI(string,string)": {
        "notice": "contract ABI used to encode/decode messages sent to this contract"
      },
      "registerMessageABI(string,string,string,string,string)": {
        "notice": "message ABI used to encode/decode messages sent from this contract"
      },
      "setCrossChainContract(address)": {
        "notice": "Set cross chain contract"
      }
    },
    "version": 1
  }
}