{
  "contractName": "Token",
  "abi": [
    {
      "inputs": [
        {
          "internalType": "string",
          "name": "name",
          "type": "string"
        },
        {
          "internalType": "string",
          "name": "symbol",
          "type": "string"
        },
        {
          "internalType": "uint256",
          "name": "initialSupply",
          "type": "uint256"
        }
      ],
      "stateMutability": "nonpayable",
      "type": "constructor"
    },
    {
      "anonymous": false,
      "inputs": [
        {
          "indexed": true,
          "internalType": "address",
          "name": "owner",
          "type": "address"
        },
        {
          "indexed": true,
          "internalType": "address",
          "name": "spender",
          "type": "address"
        },
        {
          "indexed": false,
          "internalType": "uint256",
          "name": "value",
          "type": "uint256"
        }
      ],
      "name": "Approval",
      "type": "event"
    },
    {
      "anonymous": false,
      "inputs": [
        {
          "indexed": true,
          "internalType": "address",
          "name": "from",
          "type": "address"
        },
        {
          "indexed": true,
          "internalType": "address",
          "name": "to",
          "type": "address"
        },
        {
          "indexed": false,
          "internalType": "uint256",
          "name": "value",
          "type": "uint256"
        }
      ],
      "name": "Transfer",
      "type": "event"
    },
    {
      "inputs": [
        {
          "internalType": "address",
          "name": "owner",
          "type": "address"
        },
        {
          "internalType": "address",
          "name": "spender",
          "type": "address"
        }
      ],
      "name": "allowance",
      "outputs": [
        {
          "internalType": "uint256",
          "name": "",
          "type": "uint256"
        }
      ],
      "stateMutability": "view",
      "type": "function"
    },
    {
      "inputs": [
        {
          "internalType": "address",
          "name": "spender",
          "type": "address"
        },
        {
          "internalType": "uint256",
          "name": "amount",
          "type": "uint256"
        }
      ],
      "name": "approve",
      "outputs": [
        {
          "internalType": "bool",
          "name": "",
          "type": "bool"
        }
      ],
      "stateMutability": "nonpayable",
      "type": "function"
    },
    {
      "inputs": [
        {
          "internalType": "address",
          "name": "account",
          "type": "address"
        }
      ],
      "name": "balanceOf",
      "outputs": [
        {
          "internalType": "uint256",
          "name": "",
          "type": "uint256"
        }
      ],
      "stateMutability": "view",
      "type": "function"
    },
    {
      "inputs": [],
      "name": "decimals",
      "outputs": [
        {
          "internalType": "uint8",
          "name": "",
          "type": "uint8"
        }
      ],
      "stateMutability": "view",
      "type": "function"
    },
    {
      "inputs": [
        {
          "internalType": "address",
          "name": "spender",
          "type": "address"
        },
        {
          "internalType": "uint256",
          "name": "subtractedValue",
          "type": "uint256"
        }
      ],
      "name": "decreaseAllowance",
      "outputs": [
        {
          "internalType": "bool",
          "name": "",
          "type": "bool"
        }
      ],
      "stateMutability": "nonpayable",
      "type": "function"
    },
    {
      "inputs": [
        {
          "internalType": "address",
          "name": "spender",
          "type": "address"
        },
        {
          "internalType": "uint256",
          "name": "addedValue",
          "type": "uint256"
        }
      ],
      "name": "increaseAllowance",
      "outputs": [
        {
          "internalType": "bool",
          "name": "",
          "type": "bool"
        }
      ],
      "stateMutability": "nonpayable",
      "type": "function"
    },
    {
      "inputs": [],
      "name": "name",
      "outputs": [
        {
          "internalType": "string",
          "name": "",
          "type": "string"
        }
      ],
      "stateMutability": "view",
      "type": "function"
    },
    {
      "inputs": [],
      "name": "symbol",
      "outputs": [
        {
          "internalType": "string",
          "name": "",
          "type": "string"
        }
      ],
      "stateMutability": "view",
      "type": "function"
    },
    {
      "inputs": [],
      "name": "totalSupply",
      "outputs": [
        {
          "internalType": "uint256",
          "name": "",
          "type": "uint256"
        }
      ],
      "stateMutability": "view",
      "type": "function"
    },
    {
      "inputs": [
        {
          "internalType": "address",
          "name": "to",
          "type": "address"
        },
        {
          "internalType": "uint256",
          "name": "amount",
          "type": "uint256"
        }
      ],
      "name": "transfer",
      "outputs": [
        {
          "internalType": "bool",
          "name": "",
          "type": "bool"
        }
      ],
      "stateMutability": "nonpayable",
      "type": "function"
    },
    {
      "inputs": [
        {
          "internalType": "address",
          "name": "from",
          "type": "address"
        },
        {
          "internalType": "address",
          "name": "to",
          "type": "address"
        },
        {
          "internalType": "uint256",
          "name": "amount",
          "type": "uint256"
        }
      ],
      "name": "transferFrom",
      "outputs": [
        {
          "internalType": "bool",
          "name": "",
          "type": "bool"
        }
      ],
      "stateMutability": "nonpayable",
      "type": "function"
    },
    {
      "inputs": [
        {
          "internalType": "address",
          "name": "to",
          "type": "address"
        },
        {
          "internalType": "uint256",
          "name": "amount",
          "type": "uint256"
        }
      ],
      "name": "mint",
      "outputs": [],
      "stateMutability": "nonpayable",
      "type": "function"
    },
    {
      "inputs": [],
      "name": "faucet",
      "outputs": [],
      "stateMutability": "payable",
      "type": "function"
    }
  ],
  "bytecode": "0x60806040523480156200001157600080fd5b5060405162000f5838038062000f588339810160408190526200003491620002b9565b8251839083906200004d90600390602085019062000168565b5080516200006390600490602084019062000168565b5050506200007833826200008160201b60201c565b505050620003e1565b6001600160a01b038216620000b35760405162461bcd60e51b8152600401620000aa9062000329565b60405180910390fd5b620000c16000838362000163565b8060026000828254620000d5919062000369565b90915550506001600160a01b038216600090815260208190526040812080548392906200010490849062000369565b90915550506040516001600160a01b038316906000907fddf252ad1be2c89b69c2b068fc378daa952ba7f163c4a11628f55a4df523b3ef906200014990859062000360565b60405180910390a36200015f6000838362000163565b5050565b505050565b82805462000176906200038e565b90600052602060002090601f0160209004810192826200019a5760008555620001e5565b82601f10620001b557805160ff1916838001178555620001e5565b82800160010185558215620001e5579182015b82811115620001e5578251825591602001919060010190620001c8565b50620001f3929150620001f7565b5090565b5b80821115620001f35760008155600101620001f8565b600082601f8301126200021f578081fd5b81516001600160401b03808211156200023c576200023c620003cb565b6040516020601f8401601f1916820181018381118382101715620002645762000264620003cb565b60405283825285840181018710156200027b578485fd5b8492505b838310156200029e57858301810151828401820152918201916200027f565b83831115620002af57848185840101525b5095945050505050565b600080600060608486031215620002ce578283fd5b83516001600160401b0380821115620002e5578485fd5b620002f3878388016200020e565b9450602086015191508082111562000309578384fd5b5062000318868287016200020e565b925050604084015190509250925092565b6020808252601f908201527f45524332303a206d696e7420746f20746865207a65726f206164647265737300604082015260600190565b90815260200190565b600082198211156200038957634e487b7160e01b81526011600452602481fd5b500190565b600281046001821680620003a357607f821691505b60208210811415620003c557634e487b7160e01b600052602260045260246000fd5b50919050565b634e487b7160e01b600052604160045260246000fd5b610b6780620003f16000396000f3fe6080604052600436106100c25760003560e01c806340c10f191161007f578063a457c2d711610059578063a457c2d7146101fa578063a9059cbb1461021a578063dd62ed3e1461023a578063de5f72fd1461025a576100c2565b806340c10f19146101a357806370a08231146101c557806395d89b41146101e5576100c2565b806306fdde03146100c7578063095ea7b3146100f257806318160ddd1461011f57806323b872dd14610141578063313ce567146101615780633950935114610183575b600080fd5b3480156100d357600080fd5b506100dc610262565b6040516100e99190610861565b60405180910390f35b3480156100fe57600080fd5b5061011261010d36600461082d565b6102f4565b6040516100e99190610856565b34801561012b57600080fd5b50610134610316565b6040516100e99190610abb565b34801561014d57600080fd5b5061011261015c3660046107f2565b61031c565b34801561016d57600080fd5b5061017661034a565b6040516100e99190610ac4565b34801561018f57600080fd5b5061011261019e36600461082d565b61034f565b3480156101af57600080fd5b506101c36101be36600461082d565b61039b565b005b3480156101d157600080fd5b506101346101e036600461079f565b6103a9565b3480156101f157600080fd5b506100dc6103c8565b34801561020657600080fd5b5061011261021536600461082d565b6103d7565b34801561022657600080fd5b5061011261023536600461082d565b610441565b34801561024657600080fd5b506101346102553660046107c0565b610459565b6101c3610484565b60606003805461027190610af6565b80601f016020809104026020016040519081016040528092919081815260200182805461029d90610af6565b80156102ea5780601f106102bf576101008083540402835291602001916102ea565b820191906000526020600020905b8154815290600101906020018083116102cd57829003601f168201915b5050505050905090565b6000806102ff610499565b905061030c81858561049d565b5060019392505050565b60025490565b600080610327610499565b9050610334858285610551565b61033f85858561059b565b506001949350505050565b601290565b60008061035a610499565b6001600160a01b0380821660009081526001602090815260408083209389168352929052205490915061030c9082908690610396908790610ad2565b61049d565b6103a582826106bf565b5050565b6001600160a01b0381166000908152602081905260409020545b919050565b60606004805461027190610af6565b6000806103e2610499565b6001600160a01b03808216600090815260016020908152604080832093891683529290522054909150838110156104345760405162461bcd60e51b815260040161042b90610a3f565b60405180910390fd5b61033f828686840361049d565b60008061044c610499565b905061030c81858561059b565b6001600160a01b03918216600090815260016020908152604080832093909416825291909152205490565b6104973368056bc75e2d631000006106bf565b565b3390565b6001600160a01b0383166104c35760405162461bcd60e51b815260040161042b906109fb565b6001600160a01b0382166104e95760405162461bcd60e51b815260040161042b906108f7565b6001600160a01b0380841660008181526001602090815260408083209487168084529490915290819020849055517f8c5be1e5ebec7d5bd14f71427d1e84f3dd0314c0f7b2291e5b200ac8c7c3b92590610544908590610abb565b60405180910390a3505050565b600061055d8484610459565b9050600019811461059557818110156105885760405162461bcd60e51b815260040161042b90610939565b610595848484840361049d565b50505050565b6001600160a01b0383166105c15760405162461bcd60e51b815260040161042b906109b6565b6001600160a01b0382166105e75760405162461bcd60e51b815260040161042b906108b4565b6105f2838383610783565b6001600160a01b0383166000908152602081905260409020548181101561062b5760405162461bcd60e51b815260040161042b90610970565b6001600160a01b03808516600090815260208190526040808220858503905591851681529081208054849290610662908490610ad2565b92505081905550826001600160a01b0316846001600160a01b03167fddf252ad1be2c89b69c2b068fc378daa952ba7f163c4a11628f55a4df523b3ef846040516106ac9190610abb565b60405180910390a3610595848484610783565b6001600160a01b0382166106e55760405162461bcd60e51b815260040161042b90610a84565b6106f160008383610783565b80600260008282546107039190610ad2565b90915550506001600160a01b03821660009081526020819052604081208054839290610730908490610ad2565b90915550506040516001600160a01b038316906000907fddf252ad1be2c89b69c2b068fc378daa952ba7f163c4a11628f55a4df523b3ef90610773908590610abb565b60405180910390a36103a5600083835b505050565b80356001600160a01b03811681146103c357600080fd5b6000602082840312156107b0578081fd5b6107b982610788565b9392505050565b600080604083850312156107d2578081fd5b6107db83610788565b91506107e960208401610788565b90509250929050565b600080600060608486031215610806578081fd5b61080f84610788565b925061081d60208501610788565b9150604084013590509250925092565b6000806040838503121561083f578182fd5b61084883610788565b946020939093013593505050565b901515815260200190565b6000602080835283518082850152825b8181101561088d57858101830151858201604001528201610871565b8181111561089e5783604083870101525b50601f01601f1916929092016040019392505050565b60208082526023908201527f45524332303a207472616e7366657220746f20746865207a65726f206164647260408201526265737360e81b606082015260800190565b60208082526022908201527f45524332303a20617070726f766520746f20746865207a65726f206164647265604082015261737360f01b606082015260800190565b6020808252601d908201527f45524332303a20696e73756666696369656e7420616c6c6f77616e6365000000604082015260600190565b60208082526026908201527f45524332303a207472616e7366657220616d6f756e7420657863656564732062604082015265616c616e636560d01b606082015260800190565b60208082526025908201527f45524332303a207472616e736665722066726f6d20746865207a65726f206164604082015264647265737360d81b606082015260800190565b60208082526024908201527f45524332303a20617070726f76652066726f6d20746865207a65726f206164646040820152637265737360e01b606082015260800190565b60208082526025908201527f45524332303a2064656372656173656420616c6c6f77616e63652062656c6f77604082015264207a65726f60d81b606082015260800190565b6020808252601f908201527f45524332303a206d696e7420746f20746865207a65726f206164647265737300604082015260600190565b90815260200190565b60ff91909116815260200190565b60008219821115610af157634e487b7160e01b81526011600452602481fd5b500190565b600281046001821680610b0a57607f821691505b60208210811415610b2b57634e487b7160e01b600052602260045260246000fd5b5091905056fea264697066735822122047e1d01adc049fbea884d14f6d96c1e55ba584ac8d3f4b09387fb19585fe31d864736f6c63430008000033",
  "immutableReferences": {},
  "source": "pragma solidity ^0.8.0;\n\nimport \"@openzeppelin/contracts/token/ERC20/ERC20.sol\";\n\ncontract Token is ERC20 {\n    constructor(\n        string memory name,\n        string memory symbol,\n        uint256 initialSupply\n    ) ERC20(name, symbol) {\n        _mint(msg.sender, initialSupply);\n    }\n\n    function mint(address to, uint256 amount) public {\n        _mint(to, amount);\n    }\n\n    function faucet() public payable {\n        _mint(msg.sender, 100 * (1 ether));\n    }\n}",
  "sourcePath": "/Users/fsy412/code/Demo-Swap/contracts/Token.sol",
  "compiler": {
    "name": "solc",
    "version": "0.8.0+commit.c7dfd78e.Emscripten.clang"
  },
  "schemaVersion": "3.4.6",
  "updatedAt": "2022-04-08T02:43:25.072Z",
  "devdoc": {
    "kind": "dev",
    "methods": {
      "allowance(address,address)": {
        "details": "See {IERC20-allowance}."
      },
      "approve(address,uint256)": {
        "details": "See {IERC20-approve}. NOTE: If `amount` is the maximum `uint256`, the allowance is not updated on `transferFrom`. This is semantically equivalent to an infinite approval. Requirements: - `spender` cannot be the zero address."
      },
      "balanceOf(address)": {
        "details": "See {IERC20-balanceOf}."
      },
      "decimals()": {
        "details": "Returns the number of decimals used to get its user representation. For example, if `decimals` equals `2`, a balance of `505` tokens should be displayed to a user as `5.05` (`505 / 10 ** 2`). Tokens usually opt for a value of 18, imitating the relationship between Ether and Wei. This is the value {ERC20} uses, unless this function is overridden; NOTE: This information is only used for _display_ purposes: it in no way affects any of the arithmetic of the contract, including {IERC20-balanceOf} and {IERC20-transfer}."
      },
      "decreaseAllowance(address,uint256)": {
        "details": "Atomically decreases the allowance granted to `spender` by the caller. This is an alternative to {approve} that can be used as a mitigation for problems described in {IERC20-approve}. Emits an {Approval} event indicating the updated allowance. Requirements: - `spender` cannot be the zero address. - `spender` must have allowance for the caller of at least `subtractedValue`."
      },
      "increaseAllowance(address,uint256)": {
        "details": "Atomically increases the allowance granted to `spender` by the caller. This is an alternative to {approve} that can be used as a mitigation for problems described in {IERC20-approve}. Emits an {Approval} event indicating the updated allowance. Requirements: - `spender` cannot be the zero address."
      },
      "name()": {
        "details": "Returns the name of the token."
      },
      "symbol()": {
        "details": "Returns the symbol of the token, usually a shorter version of the name."
      },
      "totalSupply()": {
        "details": "See {IERC20-totalSupply}."
      },
      "transfer(address,uint256)": {
        "details": "See {IERC20-transfer}. Requirements: - `to` cannot be the zero address. - the caller must have a balance of at least `amount`."
      },
      "transferFrom(address,address,uint256)": {
        "details": "See {IERC20-transferFrom}. Emits an {Approval} event indicating the updated allowance. This is not required by the EIP. See the note at the beginning of {ERC20}. NOTE: Does not update the allowance if the current allowance is the maximum `uint256`. Requirements: - `from` and `to` cannot be the zero address. - `from` must have a balance of at least `amount`. - the caller must have allowance for ``from``'s tokens of at least `amount`."
      }
    },
    "version": 1
  },
  "userdoc": {
    "kind": "user",
    "methods": {},
    "version": 1
  }
}