{
  "contractName": "ZSC",
  "abi": [
    {
      "inputs": [
        {
          "internalType": "address",
          "name": "_coin",
          "type": "address"
        },
        {
          "internalType": "address",
          "name": "_zether",
          "type": "address"
        },
        {
          "internalType": "address",
          "name": "_burn",
          "type": "address"
        },
        {
          "internalType": "uint256",
          "name": "_epochLength",
          "type": "uint256"
        }
      ],
      "stateMutability": "nonpayable",
      "type": "constructor"
    },
    {
      "anonymous": false,
      "inputs": [
        {
          "components": [
            {
              "internalType": "bytes32",
              "name": "x",
              "type": "bytes32"
            },
            {
              "internalType": "bytes32",
              "name": "y",
              "type": "bytes32"
            }
          ],
          "indexed": false,
          "internalType": "struct Utils.G1Point[]",
          "name": "parties",
          "type": "tuple[]"
        },
        {
          "components": [
            {
              "internalType": "bytes32",
              "name": "x",
              "type": "bytes32"
            },
            {
              "internalType": "bytes32",
              "name": "y",
              "type": "bytes32"
            }
          ],
          "indexed": false,
          "internalType": "struct Utils.G1Point",
          "name": "beneficiary",
          "type": "tuple"
        }
      ],
      "name": "TransferOccurred",
      "type": "event"
    },
    {
      "inputs": [],
      "name": "epochLength",
      "outputs": [
        {
          "internalType": "uint256",
          "name": "",
          "type": "uint256"
        }
      ],
      "stateMutability": "view",
      "type": "function",
      "constant": true
    },
    {
      "inputs": [],
      "name": "fee",
      "outputs": [
        {
          "internalType": "uint256",
          "name": "",
          "type": "uint256"
        }
      ],
      "stateMutability": "view",
      "type": "function",
      "constant": true
    },
    {
      "inputs": [
        {
          "components": [
            {
              "internalType": "bytes32",
              "name": "x",
              "type": "bytes32"
            },
            {
              "internalType": "bytes32",
              "name": "y",
              "type": "bytes32"
            }
          ],
          "internalType": "struct Utils.G1Point[]",
          "name": "y",
          "type": "tuple[]"
        },
        {
          "internalType": "uint256",
          "name": "epoch",
          "type": "uint256"
        }
      ],
      "name": "simulateAccounts",
      "outputs": [
        {
          "components": [
            {
              "internalType": "bytes32",
              "name": "x",
              "type": "bytes32"
            },
            {
              "internalType": "bytes32",
              "name": "y",
              "type": "bytes32"
            }
          ],
          "internalType": "struct Utils.G1Point[2][]",
          "name": "accounts",
          "type": "tuple[2][]"
        }
      ],
      "stateMutability": "view",
      "type": "function",
      "constant": true
    },
    {
      "inputs": [
        {
          "components": [
            {
              "internalType": "bytes32",
              "name": "x",
              "type": "bytes32"
            },
            {
              "internalType": "bytes32",
              "name": "y",
              "type": "bytes32"
            }
          ],
          "internalType": "struct Utils.G1Point",
          "name": "y",
          "type": "tuple"
        },
        {
          "internalType": "uint256",
          "name": "c",
          "type": "uint256"
        },
        {
          "internalType": "uint256",
          "name": "s",
          "type": "uint256"
        }
      ],
      "name": "register",
      "outputs": [],
      "stateMutability": "nonpayable",
      "type": "function"
    },
    {
      "inputs": [
        {
          "components": [
            {
              "internalType": "bytes32",
              "name": "x",
              "type": "bytes32"
            },
            {
              "internalType": "bytes32",
              "name": "y",
              "type": "bytes32"
            }
          ],
          "internalType": "struct Utils.G1Point",
          "name": "y",
          "type": "tuple"
        },
        {
          "internalType": "uint256",
          "name": "bTransfer",
          "type": "uint256"
        }
      ],
      "name": "fund",
      "outputs": [],
      "stateMutability": "nonpayable",
      "type": "function"
    },
    {
      "inputs": [
        {
          "components": [
            {
              "internalType": "bytes32",
              "name": "x",
              "type": "bytes32"
            },
            {
              "internalType": "bytes32",
              "name": "y",
              "type": "bytes32"
            }
          ],
          "internalType": "struct Utils.G1Point[]",
          "name": "C",
          "type": "tuple[]"
        },
        {
          "components": [
            {
              "internalType": "bytes32",
              "name": "x",
              "type": "bytes32"
            },
            {
              "internalType": "bytes32",
              "name": "y",
              "type": "bytes32"
            }
          ],
          "internalType": "struct Utils.G1Point",
          "name": "D",
          "type": "tuple"
        },
        {
          "components": [
            {
              "internalType": "bytes32",
              "name": "x",
              "type": "bytes32"
            },
            {
              "internalType": "bytes32",
              "name": "y",
              "type": "bytes32"
            }
          ],
          "internalType": "struct Utils.G1Point[]",
          "name": "y",
          "type": "tuple[]"
        },
        {
          "components": [
            {
              "internalType": "bytes32",
              "name": "x",
              "type": "bytes32"
            },
            {
              "internalType": "bytes32",
              "name": "y",
              "type": "bytes32"
            }
          ],
          "internalType": "struct Utils.G1Point",
          "name": "u",
          "type": "tuple"
        },
        {
          "internalType": "bytes",
          "name": "proof",
          "type": "bytes"
        },
        {
          "components": [
            {
              "internalType": "bytes32",
              "name": "x",
              "type": "bytes32"
            },
            {
              "internalType": "bytes32",
              "name": "y",
              "type": "bytes32"
            }
          ],
          "internalType": "struct Utils.G1Point",
          "name": "beneficiary",
          "type": "tuple"
        },
        {
          "internalType": "address",
          "name": "contractAddress",
          "type": "address"
        },
        {
          "components": [
            {
              "internalType": "string",
              "name": "fromChain",
              "type": "string"
            },
            {
              "internalType": "string",
              "name": "title",
              "type": "string"
            },
            {
              "internalType": "string",
              "name": "content",
              "type": "string"
            },
            {
              "internalType": "string",
              "name": "date",
              "type": "string"
            }
          ],
          "internalType": "struct Greetings.Greeting",
          "name": "_greeting",
          "type": "tuple"
        }
      ],
      "name": "sendGreeting",
      "outputs": [],
      "stateMutability": "nonpayable",
      "type": "function"
    },
    {
      "inputs": [
        {
          "components": [
            {
              "internalType": "bytes32",
              "name": "x",
              "type": "bytes32"
            },
            {
              "internalType": "bytes32",
              "name": "y",
              "type": "bytes32"
            }
          ],
          "internalType": "struct Utils.G1Point[]",
          "name": "C",
          "type": "tuple[]"
        },
        {
          "components": [
            {
              "internalType": "bytes32",
              "name": "x",
              "type": "bytes32"
            },
            {
              "internalType": "bytes32",
              "name": "y",
              "type": "bytes32"
            }
          ],
          "internalType": "struct Utils.G1Point",
          "name": "D",
          "type": "tuple"
        },
        {
          "components": [
            {
              "internalType": "bytes32",
              "name": "x",
              "type": "bytes32"
            },
            {
              "internalType": "bytes32",
              "name": "y",
              "type": "bytes32"
            }
          ],
          "internalType": "struct Utils.G1Point[]",
          "name": "y",
          "type": "tuple[]"
        },
        {
          "components": [
            {
              "internalType": "bytes32",
              "name": "x",
              "type": "bytes32"
            },
            {
              "internalType": "bytes32",
              "name": "y",
              "type": "bytes32"
            }
          ],
          "internalType": "struct Utils.G1Point",
          "name": "u",
          "type": "tuple"
        },
        {
          "internalType": "bytes",
          "name": "proof",
          "type": "bytes"
        },
        {
          "components": [
            {
              "internalType": "bytes32",
              "name": "x",
              "type": "bytes32"
            },
            {
              "internalType": "bytes32",
              "name": "y",
              "type": "bytes32"
            }
          ],
          "internalType": "struct Utils.G1Point",
          "name": "beneficiary",
          "type": "tuple"
        }
      ],
      "name": "transfer",
      "outputs": [],
      "stateMutability": "nonpayable",
      "type": "function"
    },
    {
      "inputs": [
        {
          "components": [
            {
              "internalType": "bytes32",
              "name": "x",
              "type": "bytes32"
            },
            {
              "internalType": "bytes32",
              "name": "y",
              "type": "bytes32"
            }
          ],
          "internalType": "struct Utils.G1Point",
          "name": "y",
          "type": "tuple"
        },
        {
          "internalType": "uint256",
          "name": "bTransfer",
          "type": "uint256"
        },
        {
          "components": [
            {
              "internalType": "bytes32",
              "name": "x",
              "type": "bytes32"
            },
            {
              "internalType": "bytes32",
              "name": "y",
              "type": "bytes32"
            }
          ],
          "internalType": "struct Utils.G1Point",
          "name": "u",
          "type": "tuple"
        },
        {
          "internalType": "bytes",
          "name": "proof",
          "type": "bytes"
        }
      ],
      "name": "burn",
      "outputs": [],
      "stateMutability": "nonpayable",
      "type": "function"
    }
  ],
  "bytecode": "0x608060405260006009553480156200001657600080fd5b506040516200354f3803806200354f83398181016040528101906200003c9190620002f4565b836000806101000a81548173ffffffffffffffffffffffffffffffffffffffff021916908373ffffffffffffffffffffffffffffffffffffffff16021790555082600160006101000a81548173ffffffffffffffffffffffffffffffffffffffff021916908373ffffffffffffffffffffffffffffffffffffffff16021790555081600260006101000a81548173ffffffffffffffffffffffffffffffffffffffff021916908373ffffffffffffffffffffffffffffffffffffffff16021790555080600381905550600160009054906101000a900473ffffffffffffffffffffffffffffffffffffffff1673ffffffffffffffffffffffffffffffffffffffff1663ddca3f436040518163ffffffff1660e01b815260040160206040518083038186803b1580156200016e57600080fd5b505afa15801562000183573d6000803e3d6000fd5b505050506040513d601f19601f82011682018060405250810190620001a9919062000360565b600481905550620001b9620002a6565b620001ce6200023c60201b620016531760201c565b6006600083604051602001620001e59190620003d0565b6040516020818303038152906040528051906020012081526020019081526020016000206001600281106200021657fe5b600202016000820151816000015560208201518160010155905050505050505062000469565b62000246620002a6565b60405180604001604052807f077da99d806abd13c9f15ece5398525119d11e11e9836b2ee7d23f6159ad87d460001b81526020017f01485efa927f2ad41bff567eec88f32fb0a0f706588b4e41a8d587d008b7f87560001b815250905090565b604051806040016040528060008019168152602001600080191681525090565b600081519050620002d78162000435565b92915050565b600081519050620002ee816200044f565b92915050565b600080600080608085870312156200030b57600080fd5b60006200031b87828801620002c6565b94505060206200032e87828801620002c6565b93505060406200034187828801620002c6565b92505060606200035487828801620002dd565b91505092959194509250565b6000602082840312156200037357600080fd5b60006200038384828501620002dd565b91505092915050565b620003978162000401565b82525050565b604082016000820151620003b560008501826200038c565b506020820151620003ca60208501826200038c565b50505050565b6000604082019050620003e760008301846200039d565b92915050565b6000620003fa826200040b565b9050919050565b6000819050919050565b600073ffffffffffffffffffffffffffffffffffffffff82169050919050565b6000819050919050565b6200044081620003ed565b81146200044c57600080fd5b50565b6200045a816200042b565b81146200046657600080fd5b50565b6130d680620004796000396000f3fe608060405234801561001057600080fd5b50600436106100885760003560e01c806379e543d01161005b57806379e543d0146100ff578063975c16ec1461012f5780639b0d85d31461014b578063ddca3f431461016757610088565b8063312a526c1461008d57806357d775f8146100a9578063599c1a93146100c75780637284cd30146100e3575b600080fd5b6100a760048036038101906100a2919061219c565b610185565b005b6100b16106e9565b6040516100be9190612d99565b60405180910390f35b6100e160048036038101906100dc9190612160565b6106ef565b005b6100fd60048036038101906100f89190611efd565b610a4a565b005b610119600480360381019061011491906120e3565b611152565b6040516101269190612a3c565b60405180910390f35b61014960048036038101906101449190611fcf565b6113ff565b005b61016560048036038101906101609190612217565b611488565b005b61016f61164d565b60405161017c9190612d99565b60405180910390f35b6000846040516020016101989190612d05565b6040516020818303038152906040528051906020012090506101b9816116bb565b6101f8576040517f08c379a00000000000000000000000000000000000000000000000000000000081526004016101ef90612cc5565b60405180910390fd5b610201816118c9565b83600011158015610216575063ffffffff8411155b610255576040517f08c379a000000000000000000000000000000000000000000000000000000000815260040161024c90612bf0565b60405180910390fd5b61025d611c73565b60066000838152602001908152602001600020600280602002604051908101604052809291906000905b828210156102c3578382600202016040518060400160405290816000820154815260200160018201548152505081526020019060010190610287565b50505050905061030e6102ee6102d887611b6f565b6102e0611653565b611b9b90919063ffffffff16565b826000600281106102fb57fe5b6020020151611bd490919063ffffffff16565b6006600084815260200190815260200160002060006002811061032d57fe5b60020201600082015181600001556020820151816001015590505060056000838152602001908152602001600020600280602002604051908101604052809291906000905b828210156103ae578382600202016040518060400160405290816000820154815260200160018201548152505081526020019060010190610372565b5050505090506103f96103d96103c387611b6f565b6103cb611653565b611b9b90919063ffffffff16565b826000600281106103e657fe5b6020020151611bd490919063ffffffff16565b8160006002811061040657fe5b60200201819052506000846040516020016104219190612d05565b60405160208183030381529060405280519060200120905060005b6008805490508110156104b057816008828154811061045757fe5b906000526020600020015414156104a3576040517f08c379a000000000000000000000000000000000000000000000000000000000815260040161049a90612b90565b60405180910390fd5b808060010191505061043c565b506008819080600181540180825580915050600190039060005260206000200160009091909190915055600260009054906101000a900473ffffffffffffffffffffffffffffffffffffffff1673ffffffffffffffffffffffffffffffffffffffff166391d16ac88360006002811061052557fe5b60200201518460016002811061053757fe5b60200201518a6009548a338b6040518863ffffffff1660e01b81526004016105659796959493929190612d20565b60206040518083038186803b15801561057d57600080fd5b505afa158015610591573d6000803e3d6000fd5b505050506040513d601f19601f820116820180604052508101906105b59190612137565b6105f4576040517f08c379a00000000000000000000000000000000000000000000000000000000081526004016105eb90612ce5565b60405180910390fd5b60008054906101000a900473ffffffffffffffffffffffffffffffffffffffff1673ffffffffffffffffffffffffffffffffffffffff1663a9059cbb33886040518363ffffffff1660e01b815260040161064f9291906129dc565b602060405180830381600087803b15801561066957600080fd5b505af115801561067d573d6000803e3d6000fd5b505050506040513d601f19601f820116820180604052508101906106a19190612137565b6106e0576040517f08c379a00000000000000000000000000000000000000000000000000000000081526004016106d790612ca5565b60405180910390fd5b50505050505050565b60035481565b6000826040516020016107029190612d05565b604051602081830303815290604052805190602001209050610723816116bb565b610762576040517f08c379a000000000000000000000000000000000000000000000000000000000815260040161075990612cc5565b60405180910390fd5b61076b816118c9565b63ffffffff8211156107b2576040517f08c379a00000000000000000000000000000000000000000000000000000000081526004016107a990612bb0565b60405180910390fd5b6107ba611ca0565b600660008381526020019081526020016000206000600281106107d957fe5b6002020160405180604001604052908160008201548152602001600182015481525050905061082a61081b8461080d611653565b611b9b90919063ffffffff16565b82611bd490919063ffffffff16565b9050806006600084815260200190815260200160002060006002811061084c57fe5b60020201600082015181600001556020820151816001015590505060008054906101000a900473ffffffffffffffffffffffffffffffffffffffff1673ffffffffffffffffffffffffffffffffffffffff166323b872dd3330866040518463ffffffff1660e01b81526004016108c4939291906129a5565b602060405180830381600087803b1580156108de57600080fd5b505af11580156108f2573d6000803e3d6000fd5b505050506040513d601f19601f820116820180604052508101906109169190612137565b610955576040517f08c379a000000000000000000000000000000000000000000000000000000000815260040161094c90612c30565b60405180910390fd5b63ffffffff60008054906101000a900473ffffffffffffffffffffffffffffffffffffffff1673ffffffffffffffffffffffffffffffffffffffff166370a08231306040518263ffffffff1660e01b81526004016109b3919061298a565b60206040518083038186803b1580156109cb57600080fd5b505afa1580156109df573d6000803e3d6000fd5b505050506040513d601f19601f82011682018060405250810190610a039190612266565b1115610a44576040517f08c379a0000000000000000000000000000000000000000000000000000000008152600401610a3b90612bd0565b60405180910390fd5b50505050565b60008451905060608167ffffffffffffffff81118015610a6957600080fd5b50604051908082528060200260200182016040528015610aa357816020015b610a90611ca0565b815260200190600190039081610a885790505b50905060608267ffffffffffffffff81118015610abf57600080fd5b50604051908082528060200260200182016040528015610af957816020015b610ae6611ca0565b815260200190600190039081610ade5790505b50905082895114610b3f576040517f08c379a0000000000000000000000000000000000000000000000000000000008152600401610b3690612b30565b60405180910390fd5b600084604051602001610b529190612d05565b604051602081830303815290604052805190602001209050610b73816116bb565b610bb2576040517f08c379a0000000000000000000000000000000000000000000000000000000008152600401610ba990612b70565b60405180910390fd5b610bbb816118c9565b610c2a610bda600454610bcc611653565b611b9b90919063ffffffff16565b60066000848152602001908152602001600020600060028110610bf957fe5b6002020160405180604001604052908160008201548152602001600182015481525050611bd490919063ffffffff16565b60066000838152602001908152602001600020600060028110610c4957fe5b60020201600082015181600001556020820151816001015590505060005b84811015610f45576000898281518110610c7d57fe5b6020026020010151604051602001610c959190612d05565b604051602081830303815290604052805190602001209050610cb6816116bb565b610cf5576040517f08c379a0000000000000000000000000000000000000000000000000000000008152600401610cec90612cc5565b60405180910390fd5b610cfe816118c9565b610d06611c73565b60066000838152602001908152602001600020600280602002604051908101604052809291906000905b82821015610d6c578382600202016040518060400160405290816000820154815260200160018201548152505081526020019060010190610d30565b505050509050610da98d8481518110610d8157fe5b602002602001015182600060028110610d9657fe5b6020020151611bd490919063ffffffff16565b60066000848152602001908152602001600020600060028110610dc857fe5b600202016000820151816000015560208201518160010155905050610e078c82600160028110610df457fe5b6020020151611bd490919063ffffffff16565b60066000848152602001908152602001600020600160028110610e2657fe5b60020201600082015181600001556020820151816001015590505060056000838152602001908152602001600020600280602002604051908101604052809291906000905b82821015610ea7578382600202016040518060400160405290816000820154815260200160018201548152505081526020019060010190610e6b565b505050509050610ee48d8481518110610ebc57fe5b602002602001015182600060028110610ed157fe5b6020020151611bd490919063ffffffff16565b868481518110610ef057fe5b6020026020010181905250610f1f8c82600160028110610f0c57fe5b6020020151611bd490919063ffffffff16565b858481518110610f2b57fe5b602002602001018190525050508080600101915050610c67565b50600087604051602001610f599190612d05565b60405160208183030381529060405280519060200120905060005b600880549050811015610fe8578160088281548110610f8f57fe5b90600052602060002001541415610fdb576040517f08c379a0000000000000000000000000000000000000000000000000000000008152600401610fd290612b90565b60405180910390fd5b8080600101915050610f74565b506008819080600181540180825580915050600190039060005260206000200160009091909190915055600160009054906101000a900473ffffffffffffffffffffffffffffffffffffffff1673ffffffffffffffffffffffffffffffffffffffff1663d2d5e70a85858e8e8e6009548f8f6040518963ffffffff1660e01b815260040161107d989796959493929190612a5e565b60206040518083038186803b15801561109557600080fd5b505afa1580156110a9573d6000803e3d6000fd5b505050506040513d601f19601f820116820180604052508101906110cd9190612137565b61110c576040517f08c379a000000000000000000000000000000000000000000000000000000000815260040161110390612c85565b60405180910390fd5b7f306c363b04ebfc48d0bc8a89a5fb2e4230c37937d0530d50b8334d50eec63ef0898760405161113d929190612b00565b60405180910390a15050505050505050505050565b60606000835190508067ffffffffffffffff8111801561117157600080fd5b506040519080825280602002602001820160405280156111ab57816020015b611198611c73565b8152602001906001900390816111905790505b50915060005b818110156113f75760008582815181106111c757fe5b60200260200101516040516020016111df9190612d05565b60405160208183030381529060405280519060200120905060056000828152602001908152602001600020600280602002604051908101604052809291906000905b8282101561125d578382600202016040518060400160405290816000820154815260200160018201548152505081526020019060010190611221565b5050505084838151811061126d57fe5b602002602001018190525084600760008381526020019081526020016000205410156113e95761129b611c73565b60066000838152602001908152602001600020600280602002604051908101604052809291906000905b828210156113015783826002020160405180604001604052908160008201548152602001600182015481525050815260200190600101906112c5565b50505050905061134f8160006002811061131757fe5b602002015186858151811061132857fe5b602002602001015160006002811061133c57fe5b6020020151611bd490919063ffffffff16565b85848151811061135b57fe5b602002602001015160006002811061136f57fe5b60200201819052506113bf8160016002811061138757fe5b602002015186858151811061139857fe5b60200260200101516001600281106113ac57fe5b6020020151611bd490919063ffffffff16565b8584815181106113cb57fe5b60200260200101516001600281106113df57fe5b6020020181905250505b5080806001019150506111b1565b505092915050565b61140d888888888888610a4a565b60008290508073ffffffffffffffffffffffffffffffffffffffff1663e432d53a836040518263ffffffff1660e01b815260040161144b9190612c50565b600060405180830381600087803b15801561146557600080fd5b505af1158015611479573d6000803e3d6000fd5b50505050505050505050505050565b611490611ca0565b6114d66114ae61149f85611b6f565b86611b9b90919063ffffffff16565b6114c8846114ba611653565b611b9b90919063ffffffff16565b611bd490919063ffffffff16565b905060006115103086846040516020016114f293929190612a05565b6040516020818303038152906040528051906020012060001c611c18565b9050838114611554576040517f08c379a000000000000000000000000000000000000000000000000000000000815260040161154b90612c10565b60405180910390fd5b6000856040516020016115679190612d05565b604051602081830303815290604052805190602001209050611588816116bb565b156115c8576040517f08c379a00000000000000000000000000000000000000000000000000000000081526004016115bf90612b50565b60405180910390fd5b85600660008381526020019081526020016000206000600281106115e857fe5b60020201600082015181600001556020820151816001015590505061160b611653565b6006600083815260200190815260200160002060016002811061162a57fe5b600202016000820151816000015560208201518160010155905050505050505050565b60045481565b61165b611ca0565b60405180604001604052807f077da99d806abd13c9f15ece5398525119d11e11e9836b2ee7d23f6159ad87d460001b81526020017f01485efa927f2ad41bff567eec88f32fb0a0f706588b4e41a8d587d008b7f87560001b815250905090565b60006116c5611ca0565b60405180604001604052806000801b81526020016000801b81525090506116ea611cc0565b604051806040016040528060056000878152602001908152602001600020600280602002604051908101604052809291906000905b8282101561175b57838260020201604051806040016040529081600082015481526020016001820154815250508152602001906001019061171f565b50505050815260200160066000878152602001908152602001600020600280602002604051908101604052809291906000905b828210156117ca57838260020201604051806040016040529081600082015481526020016001820154815250508152602001906001019061178e565b50505050815250905061180882826000600281106117e457fe5b60200201516000600281106117f557fe5b6020020151611c4b90919063ffffffff16565b80156118455750611844828260006002811061182057fe5b602002015160016002811061183157fe5b6020020151611c4b90919063ffffffff16565b5b80156118825750611881828260016002811061185d57fe5b602002015160006002811061186e57fe5b6020020151611c4b90919063ffffffff16565b5b80156118bf57506118be828260016002811061189a57fe5b60200201516001600281106118ab57fe5b6020020151611c4b90919063ffffffff16565b5b1592505050919050565b60006003546103e842816118d957fe5b04816118e157fe5b0490508060076000848152602001908152602001600020541015611b4b57611907611cc0565b604051806040016040528060056000868152602001908152602001600020600280602002604051908101604052809291906000905b8282101561197857838260020201604051806040016040529081600082015481526020016001820154815250508152602001906001019061193c565b50505050815260200160066000868152602001908152602001600020600280602002604051908101604052809291906000905b828210156119e75783826002020160405180604001604052908160008201548152602001600182015481525050815260200190600101906119ab565b505050508152509050611a4781600160028110611a0057fe5b6020020151600060028110611a1157fe5b602002015182600060028110611a2357fe5b6020020151600060028110611a3457fe5b6020020151611bd490919063ffffffff16565b60056000858152602001908152602001600020600060028110611a6657fe5b600202016000820151816000015560208201518160010155905050611ad881600160028110611a9157fe5b6020020151600160028110611aa257fe5b602002015182600060028110611ab457fe5b6020020151600160028110611ac557fe5b6020020151611bd490919063ffffffff16565b60056000858152602001908152602001600020600160028110611af757fe5b600202016000820151816000015560208201518160010155905050600660008481526020019081526020016000206000611b319190611ced565b816007600085815260200190815260200160002081905550505b806009541015611b6b578060098190555060086000611b6a9190611d18565b5b5050565b6000817f30644e72e131a029b85045b68181585d2833e84879b9709143e1f593f0000001039050919050565b611ba3611ca0565b604051835181526020840151602082015282604082015260408260608360075afa611bcd57600080fd5b5092915050565b611bdc611ca0565b6040518351815260208401516020820152825160408201526020830151606082015260408260808360065afa611c1157600080fd5b5092915050565b60007f30644e72e131a029b85045b68181585d2833e84879b9709143e1f593f00000018281611c4357fe5b069050919050565b600081600001518360000151148015611c6b575081602001518360200151145b905092915050565b60405180604001604052806002905b611c8a611ca0565b815260200190600190039081611c825790505090565b604051806040016040528060008019168152602001600080191681525090565b60405180604001604052806002905b611cd7611c73565b815260200190600190039081611ccf5790505090565b5060008082016000905560018201600090555060020160008082016000905560018201600090555050565b5080546000825590600052602060002090810190611d369190611d39565b50565b5b80821115611d52576000816000905550600101611d3a565b5090565b600081359050611d6581613044565b92915050565b600082601f830112611d7c57600080fd5b8135611d8f611d8a82612de1565b612db4565b91508181835260208401935060208101905083856040840282011115611db457600080fd5b60005b83811015611de45781611dca8882611e6c565b845260208401935060408301925050600181019050611db7565b5050505092915050565b600081519050611dfd8161305b565b92915050565b600081359050611e1281613072565b92915050565b600082601f830112611e2957600080fd5b8135611e3c611e3782612e09565b612db4565b91508082526020830160208301858383011115611e5857600080fd5b611e63838284612ff1565b50505092915050565b600060408284031215611e7e57600080fd5b611e886040612db4565b90506000611e9884828501611e03565b6000830152506020611eac84828501611e03565b60208301525092915050565b600060808284031215611eca57600080fd5b81905092915050565b600081359050611ee281613089565b92915050565b600081519050611ef781613089565b92915050565b6000806000806000806101208789031215611f1757600080fd5b600087013567ffffffffffffffff811115611f3157600080fd5b611f3d89828a01611d6b565b9650506020611f4e89828a01611e6c565b955050606087013567ffffffffffffffff811115611f6b57600080fd5b611f7789828a01611d6b565b9450506080611f8889828a01611e6c565b93505060c087013567ffffffffffffffff811115611fa557600080fd5b611fb189828a01611e18565b92505060e0611fc289828a01611e6c565b9150509295509295509295565b600080600080600080600080610160898b031215611fec57600080fd5b600089013567ffffffffffffffff81111561200657600080fd5b6120128b828c01611d6b565b98505060206120238b828c01611e6c565b975050606089013567ffffffffffffffff81111561204057600080fd5b61204c8b828c01611d6b565b965050608061205d8b828c01611e6c565b95505060c089013567ffffffffffffffff81111561207a57600080fd5b6120868b828c01611e18565b94505060e06120978b828c01611e6c565b9350506101206120a98b828c01611d56565b92505061014089013567ffffffffffffffff8111156120c757600080fd5b6120d38b828c01611eb8565b9150509295985092959890939650565b600080604083850312156120f657600080fd5b600083013567ffffffffffffffff81111561211057600080fd5b61211c85828601611d6b565b925050602061212d85828601611ed3565b9150509250929050565b60006020828403121561214957600080fd5b600061215784828501611dee565b91505092915050565b6000806060838503121561217357600080fd5b600061218185828601611e6c565b925050604061219285828601611ed3565b9150509250929050565b60008060008060c085870312156121b257600080fd5b60006121c087828801611e6c565b94505060406121d187828801611ed3565b93505060606121e287828801611e6c565b92505060a085013567ffffffffffffffff8111156121ff57600080fd5b61220b87828801611e18565b91505092959194509250565b60008060006080848603121561222c57600080fd5b600061223a86828701611e6c565b935050604061224b86828701611ed3565b925050606061225c86828701611ed3565b9150509250925092565b60006020828403121561227857600080fd5b600061228684828501611ee8565b91505092915050565b600061229b838361233b565b60808301905092915050565b60006122b3838361287d565b60408301905092915050565b6122c881612fbb565b82525050565b6122d781612f69565b82525050565b60006122e882612e5f565b6122f28185612eb2565b93506122fd83612e35565b8060005b8381101561232e578151612315888261228f565b975061232083612e8b565b925050600181019050612301565b5085935050505092915050565b61234481612e6a565b61234e8184612ec3565b925061235982612e45565b8060005b8381101561238a57815161237187826122a7565b965061237c83612e98565b92505060018101905061235d565b505050505050565b600061239d82612e75565b6123a78185612ece565b93506123b283612e4f565b8060005b838110156123e35781516123ca88826122a7565b97506123d583612ea5565b9250506001810190506123b6565b5085935050505092915050565b6123f981612f87565b82525050565b600061240a82612e80565b6124148185612edf565b9350612424818560208601613000565b61242d81613033565b840191505092915050565b60006124448385612ef0565b9350612451838584612ff1565b61245a83613033565b840190509392505050565b6000612472601c83612f01565b91507f496e707574206172726179206c656e677468206d69736d6174636821000000006000830152602082019050919050565b60006124b2601b83612f01565b91507f4163636f756e7420616c726561647920726567697374657265642100000000006000830152602082019050919050565b60006124f2602683612f01565b91507f4d696e65722773206163636f756e74206973206e6f742079657420726567697360008301527f74657265642e00000000000000000000000000000000000000000000000000006020830152604082019050919050565b6000612558601383612f01565b91507f4e6f6e636520616c7265616479207365656e21000000000000000000000000006000830152602082019050919050565b6000612598601c83612f01565b91507f4465706f73697420616d6f756e74206f7574206f662072616e67652e000000006000830152602082019050919050565b60006125d8602883612f01565b91507f46756e642070757368657320636f6e74726163742070617374206d6178696d7560008301527f6d2076616c75652e0000000000000000000000000000000000000000000000006020830152604082019050919050565b600061263e601d83612f01565b91507f5472616e7366657220616d6f756e74206f7574206f662072616e67652e0000006000830152602082019050919050565b600061267e601f83612f01565b91507f496e76616c696420726567697374726174696f6e207369676e617475726521006000830152602082019050919050565b60006126be601c83612f01565b91507f5472616e736665722066726f6d2073656e646572206661696c65642e000000006000830152602082019050919050565b60006126fe600483612f01565b91507f4e454152000000000000000000000000000000000000000000000000000000006000830152602082019050919050565b600061273e602383612f01565b91507f5472616e736665722070726f6f6620766572696669636174696f6e206661696c60008301527f65642100000000000000000000000000000000000000000000000000000000006020830152604082019050919050565b60006127a4603583612f01565b91507f546869732073686f756c646e2774206661696c2e2e2e20536f6d657468696e6760008301527f2077656e74207365766572656c792077726f6e672e00000000000000000000006020830152604082019050919050565b600061280a601b83612f01565b91507f4163636f756e74206e6f742079657420726567697374657265642e00000000006000830152602082019050919050565b600061284a601f83612f01565b91507f4275726e2070726f6f6620766572696669636174696f6e206661696c656421006000830152602082019050919050565b60408201600082015161289360008501826123f0565b5060208201516128a660208501826123f0565b50505050565b6040820160008201516128c260008501826123f0565b5060208201516128d560208501826123f0565b50505050565b6000608083016128ee6000840184612f12565b8583036000870152612901838284612438565b925050506129126020840184612f12565b8583036020870152612925838284612438565b925050506129366040840184612f12565b8583036040870152612949838284612438565b9250505061295a6060840184612f12565b858303606087015261296d838284612438565b925050508091505092915050565b61298481612fb1565b82525050565b600060208201905061299f60008301846122ce565b92915050565b60006060820190506129ba60008301866122bf565b6129c760208301856122ce565b6129d4604083018461297b565b949350505050565b60006040820190506129f160008301856122bf565b6129fe602083018461297b565b9392505050565b600060a082019050612a1a60008301866122ce565b612a2760208301856128ac565b612a3460608301846128ac565b949350505050565b60006020820190508181036000830152612a5681846122dd565b905092915050565b6000610140820190508181036000830152612a79818b612392565b90508181036020830152612a8d818a612392565b90508181036040830152612aa18189612392565b9050612ab060608301886128ac565b81810360a0830152612ac28187612392565b9050612ad160c083018661297b565b612ade60e08301856128ac565b818103610120830152612af181846123ff565b90509998505050505050505050565b60006060820190508181036000830152612b1a8185612392565b9050612b2960208301846128ac565b9392505050565b60006020820190508181036000830152612b4981612465565b9050919050565b60006020820190508181036000830152612b69816124a5565b9050919050565b60006020820190508181036000830152612b89816124e5565b9050919050565b60006020820190508181036000830152612ba98161254b565b9050919050565b60006020820190508181036000830152612bc98161258b565b9050919050565b60006020820190508181036000830152612be9816125cb565b9050919050565b60006020820190508181036000830152612c0981612631565b9050919050565b60006020820190508181036000830152612c2981612671565b9050919050565b60006020820190508181036000830152612c49816126b1565b9050919050565b60006040820190508181036000830152612c69816126f1565b90508181036020830152612c7d81846128db565b905092915050565b60006020820190508181036000830152612c9e81612731565b9050919050565b60006020820190508181036000830152612cbe81612797565b9050919050565b60006020820190508181036000830152612cde816127fd565b9050919050565b60006020820190508181036000830152612cfe8161283d565b9050919050565b6000604082019050612d1a60008301846128ac565b92915050565b600061016082019050612d36600083018a6128ac565b612d4360408301896128ac565b612d5060808301886128ac565b612d5d60c083018761297b565b612d6a60e08301866128ac565b612d786101208301856122bf565b818103610140830152612d8b81846123ff565b905098975050505050505050565b6000602082019050612dae600083018461297b565b92915050565b6000604051905081810181811067ffffffffffffffff82111715612dd757600080fd5b8060405250919050565b600067ffffffffffffffff821115612df857600080fd5b602082029050602081019050919050565b600067ffffffffffffffff821115612e2057600080fd5b601f19601f8301169050602081019050919050565b6000819050602082019050919050565b6000819050919050565b6000819050602082019050919050565b600081519050919050565b600060029050919050565b600081519050919050565b600081519050919050565b6000602082019050919050565b6000602082019050919050565b6000602082019050919050565b600082825260208201905092915050565b600081905092915050565b600082825260208201905092915050565b600082825260208201905092915050565b600082825260208201905092915050565b600082825260208201905092915050565b60008083356001602003843603038112612f2b57600080fd5b83810192508235915060208301925067ffffffffffffffff821115612f4f57600080fd5b600182023603841315612f6157600080fd5b509250929050565b6000612f7482612f91565b9050919050565b60008115159050919050565b6000819050919050565b600073ffffffffffffffffffffffffffffffffffffffff82169050919050565b6000819050919050565b6000612fc682612fcd565b9050919050565b6000612fd882612fdf565b9050919050565b6000612fea82612f91565b9050919050565b82818337600083830152505050565b60005b8381101561301e578082015181840152602081019050613003565b8381111561302d576000848401525b50505050565b6000601f19601f8301169050919050565b61304d81612f69565b811461305857600080fd5b50565b61306481612f7b565b811461306f57600080fd5b50565b61307b81612f87565b811461308657600080fd5b50565b61309281612fb1565b811461309d57600080fd5b5056fea264697066735822122050f362522cc464e322f7b153bc48e32521359609a9985f554e8086ff13495de164736f6c63430007000033",
  "immutableReferences": {},
  "source": "// SPDX-License-Identifier: Apache License 2.0\npragma solidity ^0.7.0;\npragma experimental ABIEncoderV2;\n\nimport \"./CashToken.sol\";\nimport \"./Utils.sol\";\nimport \"./InnerProductVerifier.sol\";\nimport \"./ZetherVerifier.sol\";\nimport \"./BurnVerifier.sol\";\n\ninterface Greetings {\n    // greeting\n    struct Greeting {\n        string fromChain;\n        string title;\n        string content;\n        string date;\n    }\n\n    function sendGreeting(string calldata _toChain, Greeting calldata _greeting)\n        external;\n}\n\ncontract ZSC {\n    using Utils for uint256;\n    using Utils for Utils.G1Point;\n\n    CashToken coin;\n    ZetherVerifier zetherVerifier;\n    BurnVerifier burnVerifier;\n    uint256 public epochLength;\n    uint256 public fee;\n\n    uint256 constant MAX = 4294967295; // 2^32 - 1 // no sload for constants...!\n    mapping(bytes32 => Utils.G1Point[2]) acc; // main account mapping\n    mapping(bytes32 => Utils.G1Point[2]) pending; // storage for pending transfers\n    mapping(bytes32 => uint256) lastRollOver;\n    bytes32[] nonceSet; // would be more natural to use a mapping, but they can't be deleted / reset!\n    uint256 lastGlobalUpdate = 0; // will be also used as a proxy for \"current epoch\", seeing as rollovers will be anticipated\n    // not implementing account locking for now...revisit\n\n    event TransferOccurred(Utils.G1Point[] parties, Utils.G1Point beneficiary);\n\n    // arg is still necessary for transfers---not even so much to know when you received a transfer, as to know when you got rolled over.\n\n    constructor(\n        address _coin,\n        address _zether,\n        address _burn,\n        uint256 _epochLength\n    ) {\n        // visibiility won't be needed in 7.0\n        // epoch length, like block.time, is in _seconds_. 4 is the minimum!!! (To allow a withdrawal to go through.)\n        coin = CashToken(_coin);\n        zetherVerifier = ZetherVerifier(_zether);\n        burnVerifier = BurnVerifier(_burn);\n        epochLength = _epochLength;\n        fee = zetherVerifier.fee();\n        Utils.G1Point memory empty;\n        pending[keccak256(abi.encode(empty))][1] = Utils.g(); // \"register\" the empty account...\n    }\n\n    function simulateAccounts(Utils.G1Point[] memory y, uint256 epoch)\n        public\n        view\n        returns (Utils.G1Point[2][] memory accounts)\n    {\n        // in this function and others, i have to use public + memory (and hence, a superfluous copy from calldata)\n        // only because calldata structs aren't yet supported by solidity. revisit this in the future.\n        uint256 size = y.length;\n        accounts = new Utils.G1Point[2][](size);\n        for (uint256 i = 0; i < size; i++) {\n            bytes32 yHash = keccak256(abi.encode(y[i]));\n            accounts[i] = acc[yHash];\n            if (lastRollOver[yHash] < epoch) {\n                Utils.G1Point[2] memory scratch = pending[yHash];\n                accounts[i][0] = accounts[i][0].add(scratch[0]);\n                accounts[i][1] = accounts[i][1].add(scratch[1]);\n            }\n        }\n    }\n\n    function rollOver(bytes32 yHash) internal {\n        uint256 e = block.timestamp / 1000 / epochLength;\n        if (lastRollOver[yHash] < e) {\n            Utils.G1Point[2][2] memory scratch = [acc[yHash], pending[yHash]];\n            acc[yHash][0] = scratch[0][0].add(scratch[1][0]);\n            acc[yHash][1] = scratch[0][1].add(scratch[1][1]);\n            // acc[yHash] = scratch[0]; // can't do this---have to do the above instead (and spend 2 sloads / stores)---because \"not supported\". revisit\n            delete pending[yHash]; // pending[yHash] = [Utils.G1Point(0, 0), Utils.G1Point(0, 0)];\n            lastRollOver[yHash] = e;\n        }\n        if (lastGlobalUpdate < e) {\n            lastGlobalUpdate = e;\n            delete nonceSet;\n        }\n    }\n\n    function registered(bytes32 yHash) internal view returns (bool) {\n        Utils.G1Point memory zero = Utils.G1Point(0, 0);\n        Utils.G1Point[2][2] memory scratch = [acc[yHash], pending[yHash]];\n        return\n            !(scratch[0][0].eq(zero) &&\n                scratch[0][1].eq(zero) &&\n                scratch[1][0].eq(zero) &&\n                scratch[1][1].eq(zero));\n    }\n\n    function register(\n        Utils.G1Point memory y,\n        uint256 c,\n        uint256 s\n    ) public {\n        // allows y to participate. c, s should be a Schnorr signature on \"this\"\n        Utils.G1Point memory K = Utils.g().mul(s).add(y.mul(c.neg()));\n        uint256 challenge = uint256(keccak256(abi.encode(address(this), y, K)))\n            .mod();\n        require(challenge == c, \"Invalid registration signature!\");\n        bytes32 yHash = keccak256(abi.encode(y));\n        require(!registered(yHash), \"Account already registered!\");\n        // pending[yHash] = [y, Utils.g()]; // \"not supported\" yet, have to do the below\n        pending[yHash][0] = y;\n        pending[yHash][1] = Utils.g();\n    }\n\n    function fund(Utils.G1Point memory y, uint256 bTransfer) public {\n        bytes32 yHash = keccak256(abi.encode(y));\n        require(registered(yHash), \"Account not yet registered.\");\n        rollOver(yHash);\n\n        require(bTransfer <= MAX, \"Deposit amount out of range.\"); // uint, so other way not necessary?\n\n        Utils.G1Point memory scratch = pending[yHash][0];\n        scratch = scratch.add(Utils.g().mul(bTransfer));\n        pending[yHash][0] = scratch;\n        require(\n            coin.transferFrom(msg.sender, address(this), bTransfer),\n            \"Transfer from sender failed.\"\n        );\n        require(\n            coin.balanceOf(address(this)) <= MAX,\n            \"Fund pushes contract past maximum value.\"\n        );\n    }\n\n    ////////////////////////////////////////////////////////////////////////////////////////////////\n\n    // Send greeting info to other chains\n    function sendGreeting(\n        Utils.G1Point[] memory C,\n        Utils.G1Point memory D,\n        Utils.G1Point[] memory y,\n        Utils.G1Point memory u,\n        bytes memory proof,\n        Utils.G1Point memory beneficiary,\n        address contractAddress,\n        Greetings.Greeting calldata _greeting\n    ) public {\n        transfer(C, D, y, u, proof, beneficiary);\n        Greetings greetingsContract = Greetings(contractAddress);\n        greetingsContract.sendGreeting(\"NEAR\", _greeting);\n    }\n\n    ////////////////////////////////////////////////////////////////////////////////////////////////\n\n    function transfer(\n        Utils.G1Point[] memory C,\n        Utils.G1Point memory D,\n        Utils.G1Point[] memory y,\n        Utils.G1Point memory u,\n        bytes memory proof,\n        Utils.G1Point memory beneficiary\n    ) public {\n        uint256 size = y.length;\n        Utils.G1Point[] memory CLn = new Utils.G1Point[](size);\n        Utils.G1Point[] memory CRn = new Utils.G1Point[](size);\n        require(C.length == size, \"Input array length mismatch!\");\n\n        bytes32 beneficiaryHash = keccak256(abi.encode(beneficiary));\n        require(\n            registered(beneficiaryHash),\n            \"Miner's account is not yet registered.\"\n        ); // necessary so that receiving a fee can't \"backdoor\" you into registration.\n        rollOver(beneficiaryHash);\n        pending[beneficiaryHash][0] = pending[beneficiaryHash][0].add(\n            Utils.g().mul(fee)\n        );\n\n        for (uint256 i = 0; i < size; i++) {\n            bytes32 yHash = keccak256(abi.encode(y[i]));\n            require(registered(yHash), \"Account not yet registered.\");\n            rollOver(yHash);\n            Utils.G1Point[2] memory scratch = pending[yHash];\n            pending[yHash][0] = scratch[0].add(C[i]);\n            pending[yHash][1] = scratch[1].add(D);\n            // pending[yHash] = scratch; // can't do this, so have to use 2 sstores _anyway_ (as in above)\n\n            scratch = acc[yHash]; // trying to save an sload, i guess.\n            CLn[i] = scratch[0].add(C[i]);\n            CRn[i] = scratch[1].add(D);\n        }\n\n        bytes32 uHash = keccak256(abi.encode(u));\n        for (uint256 i = 0; i < nonceSet.length; i++) {\n            require(nonceSet[i] != uHash, \"Nonce already seen!\");\n        }\n        nonceSet.push(uHash);\n\n        require(\n            zetherVerifier.verifyTransfer(\n                CLn,\n                CRn,\n                C,\n                D,\n                y,\n                lastGlobalUpdate,\n                u,\n                proof\n            ),\n            \"Transfer proof verification failed!\"\n        );\n\n        emit TransferOccurred(y, beneficiary);\n    }\n\n    function burn(\n        Utils.G1Point memory y,\n        uint256 bTransfer,\n        Utils.G1Point memory u,\n        bytes memory proof\n    ) public {\n        bytes32 yHash = keccak256(abi.encode(y));\n        require(registered(yHash), \"Account not yet registered.\");\n        rollOver(yHash);\n\n        require(\n            0 <= bTransfer && bTransfer <= MAX,\n            \"Transfer amount out of range.\"\n        );\n        Utils.G1Point[2] memory scratch = pending[yHash];\n        pending[yHash][0] = scratch[0].add(Utils.g().mul(bTransfer.neg()));\n\n        scratch = acc[yHash]; // simulate debit of acc---just for use in verification, won't be applied\n        scratch[0] = scratch[0].add(Utils.g().mul(bTransfer.neg()));\n        bytes32 uHash = keccak256(abi.encode(u));\n        for (uint256 i = 0; i < nonceSet.length; i++) {\n            require(nonceSet[i] != uHash, \"Nonce already seen!\");\n        }\n        nonceSet.push(uHash);\n\n        require(\n            burnVerifier.verifyBurn(\n                scratch[0],\n                scratch[1],\n                y,\n                lastGlobalUpdate,\n                u,\n                msg.sender,\n                proof\n            ),\n            \"Burn proof verification failed!\"\n        );\n        require(\n            coin.transfer(msg.sender, bTransfer),\n            \"This shouldn't fail... Something went severely wrong.\"\n        );\n    }\n}\n",
  "sourcePath": "/root/privacy-solution/contracts/ZSC.sol",
  "compiler": {
    "name": "solc",
    "version": "0.7.0+commit.9e61f92b.Emscripten.clang"
  },
  "schemaVersion": "3.4.7",
  "updatedAt": "2022-06-08T09:58:10.197Z",
  "networkType": "ethereum",
  "devdoc": {
    "kind": "dev",
    "methods": {},
    "version": 1
  },
  "userdoc": {
    "kind": "user",
    "methods": {},
    "version": 1
  }
}