{
  "contractName": "KingHonorNFTView",
  "abi": [
    {
      "inputs": [
        {
          "internalType": "string",
          "name": "_name",
          "type": "string"
        },
        {
          "internalType": "string",
          "name": "_symbol",
          "type": "string"
        },
        {
          "internalType": "address",
          "name": "_proxyRegistryAddress",
          "type": "address"
        }
      ],
      "stateMutability": "nonpayable",
      "type": "constructor"
    },
    {
      "anonymous": false,
      "inputs": [
        {
          "indexed": true,
          "internalType": "address",
          "name": "owner",
          "type": "address"
        },
        {
          "indexed": true,
          "internalType": "address",
          "name": "approved",
          "type": "address"
        },
        {
          "indexed": true,
          "internalType": "uint256",
          "name": "tokenId",
          "type": "uint256"
        }
      ],
      "name": "Approval",
      "type": "event"
    },
    {
      "anonymous": false,
      "inputs": [
        {
          "indexed": true,
          "internalType": "address",
          "name": "owner",
          "type": "address"
        },
        {
          "indexed": true,
          "internalType": "address",
          "name": "operator",
          "type": "address"
        },
        {
          "indexed": false,
          "internalType": "bool",
          "name": "approved",
          "type": "bool"
        }
      ],
      "name": "ApprovalForAll",
      "type": "event"
    },
    {
      "anonymous": false,
      "inputs": [
        {
          "indexed": false,
          "internalType": "address",
          "name": "userAddress",
          "type": "address"
        },
        {
          "indexed": false,
          "internalType": "address payable",
          "name": "relayerAddress",
          "type": "address"
        },
        {
          "indexed": false,
          "internalType": "bytes",
          "name": "functionSignature",
          "type": "bytes"
        }
      ],
      "name": "MetaTransactionExecuted",
      "type": "event"
    },
    {
      "anonymous": false,
      "inputs": [
        {
          "indexed": true,
          "internalType": "address",
          "name": "previousOwner",
          "type": "address"
        },
        {
          "indexed": true,
          "internalType": "address",
          "name": "newOwner",
          "type": "address"
        }
      ],
      "name": "OwnershipTransferred",
      "type": "event"
    },
    {
      "anonymous": false,
      "inputs": [
        {
          "indexed": true,
          "internalType": "address",
          "name": "from",
          "type": "address"
        },
        {
          "indexed": true,
          "internalType": "address",
          "name": "to",
          "type": "address"
        },
        {
          "indexed": true,
          "internalType": "uint256",
          "name": "tokenId",
          "type": "uint256"
        }
      ],
      "name": "Transfer",
      "type": "event"
    },
    {
      "inputs": [],
      "name": "ERC712_VERSION",
      "outputs": [
        {
          "internalType": "string",
          "name": "",
          "type": "string"
        }
      ],
      "stateMutability": "view",
      "type": "function",
      "constant": true
    },
    {
      "inputs": [
        {
          "internalType": "address",
          "name": "owner",
          "type": "address"
        }
      ],
      "name": "balanceOf",
      "outputs": [
        {
          "internalType": "uint256",
          "name": "",
          "type": "uint256"
        }
      ],
      "stateMutability": "view",
      "type": "function",
      "constant": true
    },
    {
      "inputs": [],
      "name": "crossChainContract",
      "outputs": [
        {
          "internalType": "contract ICrossChain",
          "name": "",
          "type": "address"
        }
      ],
      "stateMutability": "view",
      "type": "function",
      "constant": true
    },
    {
      "inputs": [
        {
          "internalType": "address",
          "name": "userAddress",
          "type": "address"
        },
        {
          "internalType": "bytes",
          "name": "functionSignature",
          "type": "bytes"
        },
        {
          "internalType": "bytes32",
          "name": "sigR",
          "type": "bytes32"
        },
        {
          "internalType": "bytes32",
          "name": "sigS",
          "type": "bytes32"
        },
        {
          "internalType": "uint8",
          "name": "sigV",
          "type": "uint8"
        }
      ],
      "name": "executeMetaTransaction",
      "outputs": [
        {
          "internalType": "bytes",
          "name": "",
          "type": "bytes"
        }
      ],
      "stateMutability": "payable",
      "type": "function",
      "payable": true
    },
    {
      "inputs": [
        {
          "internalType": "uint256",
          "name": "tokenId",
          "type": "uint256"
        }
      ],
      "name": "getApproved",
      "outputs": [
        {
          "internalType": "address",
          "name": "",
          "type": "address"
        }
      ],
      "stateMutability": "view",
      "type": "function",
      "constant": true
    },
    {
      "inputs": [],
      "name": "getChainId",
      "outputs": [
        {
          "internalType": "uint256",
          "name": "",
          "type": "uint256"
        }
      ],
      "stateMutability": "view",
      "type": "function",
      "constant": true
    },
    {
      "inputs": [],
      "name": "getDomainSeperator",
      "outputs": [
        {
          "internalType": "bytes32",
          "name": "",
          "type": "bytes32"
        }
      ],
      "stateMutability": "view",
      "type": "function",
      "constant": true
    },
    {
      "inputs": [
        {
          "internalType": "address",
          "name": "user",
          "type": "address"
        }
      ],
      "name": "getNonce",
      "outputs": [
        {
          "internalType": "uint256",
          "name": "nonce",
          "type": "uint256"
        }
      ],
      "stateMutability": "view",
      "type": "function",
      "constant": true
    },
    {
      "inputs": [
        {
          "internalType": "address",
          "name": "owner",
          "type": "address"
        },
        {
          "internalType": "address",
          "name": "operator",
          "type": "address"
        }
      ],
      "name": "isApprovedForAll",
      "outputs": [
        {
          "internalType": "bool",
          "name": "",
          "type": "bool"
        }
      ],
      "stateMutability": "view",
      "type": "function",
      "constant": true
    },
    {
      "inputs": [
        {
          "internalType": "string",
          "name": "",
          "type": "string"
        },
        {
          "internalType": "string",
          "name": "",
          "type": "string"
        }
      ],
      "name": "methodMap",
      "outputs": [
        {
          "internalType": "string",
          "name": "contractAddress",
          "type": "string"
        },
        {
          "internalType": "string",
          "name": "methodName",
          "type": "string"
        },
        {
          "internalType": "bool",
          "name": "used",
          "type": "bool"
        }
      ],
      "stateMutability": "view",
      "type": "function",
      "constant": true
    },
    {
      "inputs": [
        {
          "internalType": "address",
          "name": "_to",
          "type": "address"
        }
      ],
      "name": "mintTo",
      "outputs": [],
      "stateMutability": "nonpayable",
      "type": "function"
    },
    {
      "inputs": [],
      "name": "name",
      "outputs": [
        {
          "internalType": "string",
          "name": "",
          "type": "string"
        }
      ],
      "stateMutability": "view",
      "type": "function",
      "constant": true
    },
    {
      "inputs": [],
      "name": "owner",
      "outputs": [
        {
          "internalType": "address",
          "name": "",
          "type": "address"
        }
      ],
      "stateMutability": "view",
      "type": "function",
      "constant": true
    },
    {
      "inputs": [
        {
          "internalType": "uint256",
          "name": "tokenId",
          "type": "uint256"
        }
      ],
      "name": "ownerOf",
      "outputs": [
        {
          "internalType": "address",
          "name": "",
          "type": "address"
        }
      ],
      "stateMutability": "view",
      "type": "function",
      "constant": true
    },
    {
      "inputs": [
        {
          "internalType": "string",
          "name": "_toChain",
          "type": "string"
        },
        {
          "internalType": "string",
          "name": "_contractAddress",
          "type": "string"
        },
        {
          "internalType": "string",
          "name": "_methodName",
          "type": "string"
        }
      ],
      "name": "registerDestinationMethod",
      "outputs": [],
      "stateMutability": "nonpayable",
      "type": "function"
    },
    {
      "inputs": [
        {
          "internalType": "string",
          "name": "_funcName",
          "type": "string"
        },
        {
          "internalType": "string",
          "name": "_interface",
          "type": "string"
        }
      ],
      "name": "registerInterface",
      "outputs": [],
      "stateMutability": "nonpayable",
      "type": "function"
    },
    {
      "inputs": [
        {
          "internalType": "string",
          "name": "_chainName",
          "type": "string"
        },
        {
          "internalType": "string",
          "name": "_sender",
          "type": "string"
        },
        {
          "internalType": "string",
          "name": "_methodName",
          "type": "string"
        }
      ],
      "name": "registerSourceSender",
      "outputs": [],
      "stateMutability": "nonpayable",
      "type": "function"
    },
    {
      "inputs": [
        {
          "internalType": "string",
          "name": "_funcName",
          "type": "string"
        },
        {
          "internalType": "string",
          "name": "_abiString",
          "type": "string"
        },
        {
          "internalType": "string",
          "name": "_paramName",
          "type": "string"
        },
        {
          "internalType": "string",
          "name": "_paramType",
          "type": "string"
        }
      ],
      "name": "registerTarget",
      "outputs": [],
      "stateMutability": "nonpayable",
      "type": "function"
    },
    {
      "inputs": [],
      "name": "renounceOwnership",
      "outputs": [],
      "stateMutability": "nonpayable",
      "type": "function"
    },
    {
      "inputs": [
        {
          "internalType": "string",
          "name": "",
          "type": "string"
        },
        {
          "internalType": "string",
          "name": "",
          "type": "string"
        }
      ],
      "name": "senderMap",
      "outputs": [
        {
          "internalType": "string",
          "name": "",
          "type": "string"
        }
      ],
      "stateMutability": "view",
      "type": "function",
      "constant": true
    },
    {
      "inputs": [
        {
          "internalType": "address",
          "name": "_address",
          "type": "address"
        }
      ],
      "name": "setCrossChainContract",
      "outputs": [],
      "stateMutability": "nonpayable",
      "type": "function"
    },
    {
      "inputs": [
        {
          "internalType": "bytes4",
          "name": "interfaceId",
          "type": "bytes4"
        }
      ],
      "name": "supportsInterface",
      "outputs": [
        {
          "internalType": "bool",
          "name": "",
          "type": "bool"
        }
      ],
      "stateMutability": "view",
      "type": "function",
      "constant": true
    },
    {
      "inputs": [],
      "name": "symbol",
      "outputs": [
        {
          "internalType": "string",
          "name": "",
          "type": "string"
        }
      ],
      "stateMutability": "view",
      "type": "function",
      "constant": true
    },
    {
      "inputs": [
        {
          "internalType": "uint256",
          "name": "_tokenId",
          "type": "uint256"
        }
      ],
      "name": "tokenURI",
      "outputs": [
        {
          "internalType": "string",
          "name": "",
          "type": "string"
        }
      ],
      "stateMutability": "pure",
      "type": "function",
      "constant": true
    },
    {
      "inputs": [],
      "name": "totalSupply",
      "outputs": [
        {
          "internalType": "uint256",
          "name": "",
          "type": "uint256"
        }
      ],
      "stateMutability": "view",
      "type": "function",
      "constant": true
    },
    {
      "inputs": [
        {
          "internalType": "address",
          "name": "newOwner",
          "type": "address"
        }
      ],
      "name": "transferOwnership",
      "outputs": [],
      "stateMutability": "nonpayable",
      "type": "function"
    },
    {
      "inputs": [
        {
          "internalType": "string",
          "name": "_chainName",
          "type": "string"
        },
        {
          "internalType": "string",
          "name": "_methodName",
          "type": "string"
        },
        {
          "internalType": "string",
          "name": "_sender",
          "type": "string"
        }
      ],
      "name": "verify",
      "outputs": [
        {
          "internalType": "bool",
          "name": "",
          "type": "bool"
        }
      ],
      "stateMutability": "view",
      "type": "function",
      "constant": true
    },
    {
      "inputs": [],
      "name": "baseTokenURI",
      "outputs": [
        {
          "internalType": "string",
          "name": "",
          "type": "string"
        }
      ],
      "stateMutability": "pure",
      "type": "function",
      "constant": true
    },
    {
      "inputs": [],
      "name": "contractURI",
      "outputs": [
        {
          "internalType": "string",
          "name": "",
          "type": "string"
        }
      ],
      "stateMutability": "pure",
      "type": "function",
      "constant": true
    },
    {
      "inputs": [
        {
          "internalType": "address",
          "name": "to",
          "type": "address"
        },
        {
          "internalType": "uint256",
          "name": "tokenId",
          "type": "uint256"
        }
      ],
      "name": "approve",
      "outputs": [],
      "stateMutability": "nonpayable",
      "type": "function"
    },
    {
      "inputs": [
        {
          "internalType": "address",
          "name": "operator",
          "type": "address"
        },
        {
          "internalType": "bool",
          "name": "approved",
          "type": "bool"
        }
      ],
      "name": "setApprovalForAll",
      "outputs": [],
      "stateMutability": "nonpayable",
      "type": "function"
    },
    {
      "inputs": [
        {
          "internalType": "address",
          "name": "from",
          "type": "address"
        },
        {
          "internalType": "address",
          "name": "to",
          "type": "address"
        },
        {
          "internalType": "uint256",
          "name": "tokenId",
          "type": "uint256"
        }
      ],
      "name": "transferFrom",
      "outputs": [],
      "stateMutability": "nonpayable",
      "type": "function"
    },
    {
      "inputs": [
        {
          "internalType": "address",
          "name": "from",
          "type": "address"
        },
        {
          "internalType": "address",
          "name": "to",
          "type": "address"
        },
        {
          "internalType": "uint256",
          "name": "tokenId",
          "type": "uint256"
        }
      ],
      "name": "safeTransferFrom",
      "outputs": [],
      "stateMutability": "nonpayable",
      "type": "function"
    },
    {
      "inputs": [
        {
          "internalType": "address",
          "name": "from",
          "type": "address"
        },
        {
          "internalType": "address",
          "name": "to",
          "type": "address"
        },
        {
          "internalType": "uint256",
          "name": "tokenId",
          "type": "uint256"
        },
        {
          "internalType": "bytes",
          "name": "_data",
          "type": "bytes"
        }
      ],
      "name": "safeTransferFrom",
      "outputs": [],
      "stateMutability": "nonpayable",
      "type": "function"
    },
    {
      "inputs": [
        {
          "internalType": "address",
          "name": "from",
          "type": "address"
        },
        {
          "internalType": "address",
          "name": "to",
          "type": "address"
        },
        {
          "internalType": "uint256",
          "name": "tokenId",
          "type": "uint256"
        }
      ],
      "name": "crossChainTransferFrom",
      "outputs": [],
      "stateMutability": "nonpayable",
      "type": "function"
    },
    {
      "inputs": [
        {
          "internalType": "address",
          "name": "from",
          "type": "address"
        },
        {
          "internalType": "address",
          "name": "to",
          "type": "address"
        },
        {
          "internalType": "uint256",
          "name": "tokenId",
          "type": "uint256"
        },
        {
          "internalType": "bytes",
          "name": "_data",
          "type": "bytes"
        }
      ],
      "name": "crossChainSafeTransferFrom",
      "outputs": [],
      "stateMutability": "nonpayable",
      "type": "function"
    }
  ],
  "bytecode": "0x60806040526000600660006101000a81548160ff0219169083151502179055503480156200002c57600080fd5b5060405162005165380380620051658339818101604052810190620000529190620006bb565b828382828281600090805190602001906200006f92919062000409565b5080600190805190602001906200008892919062000409565b505050620000ab6200009f6200012060201b60201c565b6200013c60201b60201c565b80600b60006101000a81548173ffffffffffffffffffffffffffffffffffffffff021916908373ffffffffffffffffffffffffffffffffffffffff16021790555062000103600a6200020260201b62001de71760201c565b62000114836200021860201b60201c565b505050505050620008c6565b6000620001376200029a60201b62001dfd1760201c565b905090565b6000600960009054906101000a900473ffffffffffffffffffffffffffffffffffffffff16905081600960006101000a81548173ffffffffffffffffffffffffffffffffffffffff021916908373ffffffffffffffffffffffffffffffffffffffff1602179055508173ffffffffffffffffffffffffffffffffffffffff168173ffffffffffffffffffffffffffffffffffffffff167f8be0079c531659141344cd1fd0a4f28419497f9722a3daafe3b4186f6b6457e060405160405180910390a35050565b6001816000016000828254019250508190555050565b600660009054906101000a900460ff16156200026b576040517f08c379a00000000000000000000000000000000000000000000000000000000081526004016200026290620007b6565b60405180910390fd5b6200027c816200034d60201b60201c565b6001600660006101000a81548160ff02191690831515021790555050565b60003073ffffffffffffffffffffffffffffffffffffffff163373ffffffffffffffffffffffffffffffffffffffff1614156200034657600080368080601f016020809104026020016040519081016040528093929190818152602001838380828437600081840152601f19601f820116905080830192505050505050509050600080369050905073ffffffffffffffffffffffffffffffffffffffff8183015116925050506200034a565b3390505b90565b6040518060800160405280604f815260200162005116604f91398051906020012081805190602001206040518060400160405280600181526020017f31000000000000000000000000000000000000000000000000000000000000008152508051906020012030620003c4620003fc60201b60201c565b60001b604051602001620003dd95949392919062000804565b6040516020818303038152906040528051906020012060078190555050565b6000804690508091505090565b828054620004179062000890565b90600052602060002090601f0160209004810192826200043b576000855562000487565b82601f106200045657805160ff191683800117855562000487565b8280016001018555821562000487579182015b828111156200048657825182559160200191906001019062000469565b5b5090506200049691906200049a565b5090565b5b80821115620004b55760008160009055506001016200049b565b5090565b6000604051905090565b600080fd5b600080fd5b600080fd5b600080fd5b6000601f19601f8301169050919050565b7f4e487b7100000000000000000000000000000000000000000000000000000000600052604160045260246000fd5b6200052282620004d7565b810181811067ffffffffffffffff82111715620005445762000543620004e8565b5b80604052505050565b600062000559620004b9565b905062000567828262000517565b919050565b600067ffffffffffffffff8211156200058a5762000589620004e8565b5b6200059582620004d7565b9050602081019050919050565b60005b83811015620005c2578082015181840152602081019050620005a5565b83811115620005d2576000848401525b50505050565b6000620005ef620005e9846200056c565b6200054d565b9050828152602081018484840111156200060e576200060d620004d2565b5b6200061b848285620005a2565b509392505050565b600082601f8301126200063b576200063a620004cd565b5b81516200064d848260208601620005d8565b91505092915050565b600073ffffffffffffffffffffffffffffffffffffffff82169050919050565b6000620006838262000656565b9050919050565b620006958162000676565b8114620006a157600080fd5b50565b600081519050620006b5816200068a565b92915050565b600080600060608486031215620006d757620006d6620004c3565b5b600084015167ffffffffffffffff811115620006f857620006f7620004c8565b5b620007068682870162000623565b935050602084015167ffffffffffffffff8111156200072a5762000729620004c8565b5b620007388682870162000623565b92505060406200074b86828701620006a4565b9150509250925092565b600082825260208201905092915050565b7f616c726561647920696e69746564000000000000000000000000000000000000600082015250565b60006200079e600e8362000755565b9150620007ab8262000766565b602082019050919050565b60006020820190508181036000830152620007d1816200078f565b9050919050565b6000819050919050565b620007ed81620007d8565b82525050565b620007fe8162000676565b82525050565b600060a0820190506200081b6000830188620007e2565b6200082a6020830187620007e2565b620008396040830186620007e2565b620008486060830185620007f3565b620008576080830184620007e2565b9695505050505050565b7f4e487b7100000000000000000000000000000000000000000000000000000000600052602260045260246000fd5b60006002820490506001821680620008a957607f821691505b60208210811415620008c057620008bf62000861565b5b50919050565b61484080620008d66000396000f3fe60806040526004361061020f5760003560e01c80636352211e11610118578063bcc0408c116100a0578063dbc90de11161006f578063dbc90de1146107b2578063e8a3d485146107dd578063e985e9c514610808578063f2fde38b14610845578063ff96254b1461086e5761020f565b8063bcc0408c146106f8578063c87b56dd14610721578063cf3e4ed71461075e578063d547cfb7146107875761020f565b80638da5cb5b116100e75780638da5cb5b1461062757806395d89b4114610652578063a22cb4651461067d578063a72483dd146106a6578063b88d4fde146106cf5761020f565b80636352211e1461056d57806370a08231146105aa578063715018a6146105e7578063755edd17146105fe5761020f565b806320379ee51161019b5780633408e4701161016a5780633408e4701461048a57806342842e0e146104b55780634380aa3a146104de57806345406584146105075780635f76e9e3146105305761020f565b806320379ee5146103ba57806320fe4e69146103e557806323b872dd146104245780632d0335ab1461044d5761020f565b80630b88c97d116101e25780630b88c97d146102e25780630c53c51c1461030b5780630f7e59701461033b57806318160ddd1461036657806318d72b54146103915761020f565b806301ffc9a71461021457806306fdde0314610251578063081812fc1461027c578063095ea7b3146102b9575b600080fd5b34801561022057600080fd5b5061023b60048036038101906102369190612c83565b6108ab565b6040516102489190612ccb565b60405180910390f35b34801561025d57600080fd5b5061026661098d565b6040516102739190612d7f565b60405180910390f35b34801561028857600080fd5b506102a3600480360381019061029e9190612dd7565b610a1f565b6040516102b09190612e45565b60405180910390f35b3480156102c557600080fd5b506102e060048036038101906102db9190612e8c565b610aa4565b005b3480156102ee57600080fd5b5061030960048036038101906103049190612f31565b610adf565b005b61032560048036038101906103209190613184565b610bb7565b6040516103329190613270565b60405180910390f35b34801561034757600080fd5b50610350610e29565b60405161035d9190612d7f565b60405180910390f35b34801561037257600080fd5b5061037b610e62565b60405161038891906132a1565b60405180910390f35b34801561039d57600080fd5b506103b860048036038101906103b391906132bc565b610e7f565b005b3480156103c657600080fd5b506103cf610f3f565b6040516103dc91906132f8565b60405180910390f35b3480156103f157600080fd5b5061040c600480360381019061040791906133b4565b610f49565b60405161041b9392919061342c565b60405180910390f35b34801561043057600080fd5b5061044b60048036038101906104469190613471565b6110c9565b005b34801561045957600080fd5b50610474600480360381019061046f91906132bc565b611104565b60405161048191906132a1565b60405180910390f35b34801561049657600080fd5b5061049f61114d565b6040516104ac91906132a1565b60405180910390f35b3480156104c157600080fd5b506104dc60048036038101906104d79190613471565b61115a565b005b3480156104ea57600080fd5b50610505600480360381019061050091906134c4565b611195565b005b34801561051357600080fd5b5061052e60048036038101906105299190613545565b6112aa565b005b34801561053c57600080fd5b50610557600480360381019061055291906133b4565b6113cb565b6040516105649190612d7f565b60405180910390f35b34801561057957600080fd5b50610594600480360381019061058f9190612dd7565b6114a4565b6040516105a19190612e45565b60405180910390f35b3480156105b657600080fd5b506105d160048036038101906105cc91906132bc565b611556565b6040516105de91906132a1565b60405180910390f35b3480156105f357600080fd5b506105fc61160e565b005b34801561060a57600080fd5b50610625600480360381019061062091906132bc565b611696565b005b34801561063357600080fd5b5061063c611738565b6040516106499190612e45565b60405180910390f35b34801561065e57600080fd5b50610667611762565b6040516106749190612d7f565b60405180910390f35b34801561068957600080fd5b506106a4600480360381019061069f919061365a565b6117f4565b005b3480156106b257600080fd5b506106cd60048036038101906106c89190613471565b61182f565b005b3480156106db57600080fd5b506106f660048036038101906106f1919061369a565b6118bb565b005b34801561070457600080fd5b5061071f600480360381019061071a919061369a565b6118f6565b005b34801561072d57600080fd5b5061074860048036038101906107439190612dd7565b611984565b6040516107559190612d7f565b60405180910390f35b34801561076a57600080fd5b5061078560048036038101906107809190612f31565b6119be565b005b34801561079357600080fd5b5061079c611ad0565b6040516107a99190612d7f565b60405180910390f35b3480156107be57600080fd5b506107c7611af0565b6040516107d4919061377c565b60405180910390f35b3480156107e957600080fd5b506107f2611b16565b6040516107ff9190612d7f565b60405180910390f35b34801561081457600080fd5b5061082f600480360381019061082a9190613797565b611b36565b60405161083c9190612ccb565b60405180910390f35b34801561085157600080fd5b5061086c600480360381019061086791906132bc565b611c29565b005b34801561087a57600080fd5b5061089560048036038101906108909190612f31565b611d21565b6040516108a29190612ccb565b60405180910390f35b60007f80ac58cd000000000000000000000000000000000000000000000000000000007bffffffffffffffffffffffffffffffffffffffffffffffffffffffff1916827bffffffffffffffffffffffffffffffffffffffffffffffffffffffff1916148061097657507f5b5e139f000000000000000000000000000000000000000000000000000000007bffffffffffffffffffffffffffffffffffffffffffffffffffffffff1916827bffffffffffffffffffffffffffffffffffffffffffffffffffffffff1916145b80610986575061098582611eae565b5b9050919050565b60606000805461099c90613806565b80601f01602080910402602001604051908101604052809291908181526020018280546109c890613806565b8015610a155780601f106109ea57610100808354040283529160200191610a15565b820191906000526020600020905b8154815290600101906020018083116109f857829003601f168201915b5050505050905090565b6000610a2a82611f18565b610a69576040517f08c379a0000000000000000000000000000000000000000000000000000000008152600401610a60906138aa565b60405180910390fd5b6004600083815260200190815260200160002060009054906101000a900473ffffffffffffffffffffffffffffffffffffffff169050919050565b6040517f08c379a0000000000000000000000000000000000000000000000000000000008152600401610ad690613916565b60405180910390fd5b610ae7611f84565b73ffffffffffffffffffffffffffffffffffffffff16610b05611738565b73ffffffffffffffffffffffffffffffffffffffff1614610b5b576040517f08c379a0000000000000000000000000000000000000000000000000000000008152600401610b5290613982565b60405180910390fd5b6000600e8787604051610b6f9291906139d2565b908152602001604051809103902090508484828585604051610b929291906139d2565b90815260200160405180910390209190610bad929190612b74565b5050505050505050565b606060006040518060600160405280600860008a73ffffffffffffffffffffffffffffffffffffffff1673ffffffffffffffffffffffffffffffffffffffff1681526020019081526020016000205481526020018873ffffffffffffffffffffffffffffffffffffffff168152602001878152509050610c3a8782878787611f93565b610c79576040517f08c379a0000000000000000000000000000000000000000000000000000000008152600401610c7090613a5d565b60405180910390fd5b610ccc6001600860008a73ffffffffffffffffffffffffffffffffffffffff1673ffffffffffffffffffffffffffffffffffffffff1681526020019081526020016000205461209c90919063ffffffff16565b600860008973ffffffffffffffffffffffffffffffffffffffff1673ffffffffffffffffffffffffffffffffffffffff168152602001908152602001600020819055507f5845892132946850460bff5a0083f71031bc5bf9aadcd40f1de79423eac9b10b873388604051610d4293929190613a9e565b60405180910390a16000803073ffffffffffffffffffffffffffffffffffffffff16888a604051602001610d77929190613b60565b604051602081830303815290604052604051610d939190613b88565b6000604051808303816000865af19150503d8060008114610dd0576040519150601f19603f3d011682016040523d82523d6000602084013e610dd5565b606091505b509150915081610e1a576040517f08c379a0000000000000000000000000000000000000000000000000000000008152600401610e1190613beb565b60405180910390fd5b80935050505095945050505050565b6040518060400160405280600181526020017f310000000000000000000000000000000000000000000000000000000000000081525081565b60006001610e70600a6120b2565b610e7a9190613c3a565b905090565b610e87611f84565b73ffffffffffffffffffffffffffffffffffffffff16610ea5611738565b73ffffffffffffffffffffffffffffffffffffffff1614610efb576040517f08c379a0000000000000000000000000000000000000000000000000000000008152600401610ef290613982565b60405180910390fd5b80600c60006101000a81548173ffffffffffffffffffffffffffffffffffffffff021916908373ffffffffffffffffffffffffffffffffffffffff16021790555050565b6000600754905090565b600d828051602081018201805184825260208301602085012081835280955050505050508180516020810182018051848252602083016020850120818352809550505050505060009150915050806000018054610fa590613806565b80601f0160208091040260200160405190810160405280929190818152602001828054610fd190613806565b801561101e5780601f10610ff35761010080835404028352916020019161101e565b820191906000526020600020905b81548152906001019060200180831161100157829003601f168201915b50505050509080600101805461103390613806565b80601f016020809104026020016040519081016040528092919081815260200182805461105f90613806565b80156110ac5780601f10611081576101008083540402835291602001916110ac565b820191906000526020600020905b81548152906001019060200180831161108f57829003601f168201915b5050505050908060020160009054906101000a900460ff16905083565b6040517f08c379a00000000000000000000000000000000000000000000000000000000081526004016110fb90613916565b60405180910390fd5b6000600860008373ffffffffffffffffffffffffffffffffffffffff1673ffffffffffffffffffffffffffffffffffffffff168152602001908152602001600020549050919050565b6000804690508091505090565b6040517f08c379a000000000000000000000000000000000000000000000000000000000815260040161118c90613916565b60405180910390fd5b61119d611f84565b73ffffffffffffffffffffffffffffffffffffffff166111bb611738565b73ffffffffffffffffffffffffffffffffffffffff1614611211576040517f08c379a000000000000000000000000000000000000000000000000000000000815260040161120890613982565b60405180910390fd5b600c60009054906101000a900473ffffffffffffffffffffffffffffffffffffffff1673ffffffffffffffffffffffffffffffffffffffff16634380aa3a858585856040518563ffffffff1660e01b81526004016112729493929190613c9b565b600060405180830381600087803b15801561128c57600080fd5b505af11580156112a0573d6000803e3d6000fd5b5050505050505050565b6112b2611f84565b73ffffffffffffffffffffffffffffffffffffffff166112d0611738565b73ffffffffffffffffffffffffffffffffffffffff1614611326576040517f08c379a000000000000000000000000000000000000000000000000000000000815260040161131d90613982565b60405180910390fd5b600c60009054906101000a900473ffffffffffffffffffffffffffffffffffffffff1673ffffffffffffffffffffffffffffffffffffffff16634540658489898989898989896040518963ffffffff1660e01b815260040161138f989796959493929190613cd6565b600060405180830381600087803b1580156113a957600080fd5b505af11580156113bd573d6000803e3d6000fd5b505050505050505050505050565b600e828051602081018201805184825260208301602085012081835280955050505050508180516020810182018051848252602083016020850120818352809550505050505060009150915050805461142390613806565b80601f016020809104026020016040519081016040528092919081815260200182805461144f90613806565b801561149c5780601f106114715761010080835404028352916020019161149c565b820191906000526020600020905b81548152906001019060200180831161147f57829003601f168201915b505050505081565b6000806002600084815260200190815260200160002060009054906101000a900473ffffffffffffffffffffffffffffffffffffffff169050600073ffffffffffffffffffffffffffffffffffffffff168173ffffffffffffffffffffffffffffffffffffffff16141561154d576040517f08c379a000000000000000000000000000000000000000000000000000000000815260040161154490613db1565b60405180910390fd5b80915050919050565b60008073ffffffffffffffffffffffffffffffffffffffff168273ffffffffffffffffffffffffffffffffffffffff1614156115c7576040517f08c379a00000000000000000000000000000000000000000000000000000000081526004016115be90613e43565b60405180910390fd5b600360008373ffffffffffffffffffffffffffffffffffffffff1673ffffffffffffffffffffffffffffffffffffffff168152602001908152602001600020549050919050565b611616611f84565b73ffffffffffffffffffffffffffffffffffffffff16611634611738565b73ffffffffffffffffffffffffffffffffffffffff161461168a576040517f08c379a000000000000000000000000000000000000000000000000000000000815260040161168190613982565b60405180910390fd5b61169460006120c0565b565b61169e611f84565b73ffffffffffffffffffffffffffffffffffffffff166116bc611738565b73ffffffffffffffffffffffffffffffffffffffff1614611712576040517f08c379a000000000000000000000000000000000000000000000000000000000815260040161170990613982565b60405180910390fd5b600061171e600a6120b2565b905061172a600a611de7565b6117348282612186565b5050565b6000600960009054906101000a900473ffffffffffffffffffffffffffffffffffffffff16905090565b60606001805461177190613806565b80601f016020809104026020016040519081016040528092919081815260200182805461179d90613806565b80156117ea5780601f106117bf576101008083540402835291602001916117ea565b820191906000526020600020905b8154815290600101906020018083116117cd57829003601f168201915b5050505050905090565b6040517f08c379a000000000000000000000000000000000000000000000000000000000815260040161182690613916565b60405180910390fd5b611837611f84565b73ffffffffffffffffffffffffffffffffffffffff16611855611738565b73ffffffffffffffffffffffffffffffffffffffff16146118ab576040517f08c379a00000000000000000000000000000000000000000000000000000000081526004016118a290613982565b60405180910390fd5b6118b68383836121a4565b505050565b6040517f08c379a00000000000000000000000000000000000000000000000000000000081526004016118ed90613916565b60405180910390fd5b6118fe611f84565b73ffffffffffffffffffffffffffffffffffffffff1661191c611738565b73ffffffffffffffffffffffffffffffffffffffff1614611972576040517f08c379a000000000000000000000000000000000000000000000000000000000815260040161196990613982565b60405180910390fd5b61197e84848484612400565b50505050565b606061198e611ad0565b6119978361245c565b6040516020016119a8929190613e94565b6040516020818303038152906040529050919050565b6119c6611f84565b73ffffffffffffffffffffffffffffffffffffffff166119e4611738565b73ffffffffffffffffffffffffffffffffffffffff1614611a3a576040517f08c379a0000000000000000000000000000000000000000000000000000000008152600401611a3190613982565b60405180910390fd5b6000600d8787604051611a4e9291906139d2565b908152602001604051809103902090506000818484604051611a719291906139d2565b908152602001604051809103902090508585826000019190611a94929190612b74565b508383826001019190611aa8929190612b74565b5060018160020160006101000a81548160ff0219169083151502179055505050505050505050565b60606040518060600160405280603381526020016147d860339139905090565b600c60009054906101000a900473ffffffffffffffffffffffffffffffffffffffff1681565b606060405180606001604052806040815260200161479860409139905090565b600080600b60009054906101000a900473ffffffffffffffffffffffffffffffffffffffff1690508273ffffffffffffffffffffffffffffffffffffffff168173ffffffffffffffffffffffffffffffffffffffff1663c4552791866040518263ffffffff1660e01b8152600401611bae9190612e45565b602060405180830381865afa158015611bcb573d6000803e3d6000fd5b505050506040513d601f19601f82011682018060405250810190611bef9190613ef6565b73ffffffffffffffffffffffffffffffffffffffff161415611c15576001915050611c23565b611c1f84846125bd565b9150505b92915050565b611c31611f84565b73ffffffffffffffffffffffffffffffffffffffff16611c4f611738565b73ffffffffffffffffffffffffffffffffffffffff1614611ca5576040517f08c379a0000000000000000000000000000000000000000000000000000000008152600401611c9c90613982565b60405180910390fd5b600073ffffffffffffffffffffffffffffffffffffffff168173ffffffffffffffffffffffffffffffffffffffff161415611d15576040517f08c379a0000000000000000000000000000000000000000000000000000000008152600401611d0c90613f95565b60405180910390fd5b611d1e816120c0565b50565b600080600e8888604051611d369291906139d2565b908152602001604051809103902090506000818787604051611d599291906139d2565b908152602001604051809103902090508484604051611d79929190613fda565b604051809103902081604051611d8f9190614087565b604051809103902014611dd7576040517f08c379a0000000000000000000000000000000000000000000000000000000008152600401611dce906140ea565b60405180910390fd5b6001925050509695505050505050565b6001816000016000828254019250508190555050565b60003073ffffffffffffffffffffffffffffffffffffffff163373ffffffffffffffffffffffffffffffffffffffff161415611ea757600080368080601f016020809104026020016040519081016040528093929190818152602001838380828437600081840152601f19601f820116905080830192505050505050509050600080369050905073ffffffffffffffffffffffffffffffffffffffff818301511692505050611eab565b3390505b90565b60007f01ffc9a7000000000000000000000000000000000000000000000000000000007bffffffffffffffffffffffffffffffffffffffffffffffffffffffff1916827bffffffffffffffffffffffffffffffffffffffffffffffffffffffff1916149050919050565b60008073ffffffffffffffffffffffffffffffffffffffff166002600084815260200190815260200160002060009054906101000a900473ffffffffffffffffffffffffffffffffffffffff1673ffffffffffffffffffffffffffffffffffffffff1614159050919050565b6000611f8e611dfd565b905090565b60008073ffffffffffffffffffffffffffffffffffffffff168673ffffffffffffffffffffffffffffffffffffffff161415612004576040517f08c379a0000000000000000000000000000000000000000000000000000000008152600401611ffb9061417c565b60405180910390fd5b600161201761201287612651565b6126b9565b8386866040516000815260200160405260405161203794939291906141ab565b6020604051602081039080840390855afa158015612059573d6000803e3d6000fd5b5050506020604051035173ffffffffffffffffffffffffffffffffffffffff168673ffffffffffffffffffffffffffffffffffffffff1614905095945050505050565b600081836120aa91906141f0565b905092915050565b600081600001549050919050565b6000600960009054906101000a900473ffffffffffffffffffffffffffffffffffffffff16905081600960006101000a81548173ffffffffffffffffffffffffffffffffffffffff021916908373ffffffffffffffffffffffffffffffffffffffff1602179055508173ffffffffffffffffffffffffffffffffffffffff168173ffffffffffffffffffffffffffffffffffffffff167f8be0079c531659141344cd1fd0a4f28419497f9722a3daafe3b4186f6b6457e060405160405180910390a35050565b6121a08282604051806020016040528060008152506126f2565b5050565b8273ffffffffffffffffffffffffffffffffffffffff166121c4826114a4565b73ffffffffffffffffffffffffffffffffffffffff161461221a576040517f08c379a0000000000000000000000000000000000000000000000000000000008152600401612211906142b8565b60405180910390fd5b600073ffffffffffffffffffffffffffffffffffffffff168273ffffffffffffffffffffffffffffffffffffffff16141561228a576040517f08c379a00000000000000000000000000000000000000000000000000000000081526004016122819061434a565b60405180910390fd5b61229583838361274d565b6122a0600082612752565b6001600360008573ffffffffffffffffffffffffffffffffffffffff1673ffffffffffffffffffffffffffffffffffffffff16815260200190815260200160002060008282546122f09190613c3a565b925050819055506001600360008473ffffffffffffffffffffffffffffffffffffffff1673ffffffffffffffffffffffffffffffffffffffff168152602001908152602001600020600082825461234791906141f0565b92505081905550816002600083815260200190815260200160002060006101000a81548173ffffffffffffffffffffffffffffffffffffffff021916908373ffffffffffffffffffffffffffffffffffffffff160217905550808273ffffffffffffffffffffffffffffffffffffffff168473ffffffffffffffffffffffffffffffffffffffff167fddf252ad1be2c89b69c2b068fc378daa952ba7f163c4a11628f55a4df523b3ef60405160405180910390a4505050565b61240b8484846121a4565b6124178484848461280b565b612456576040517f08c379a000000000000000000000000000000000000000000000000000000000815260040161244d906143dc565b60405180910390fd5b50505050565b606060008214156124a4576040518060400160405280600181526020017f300000000000000000000000000000000000000000000000000000000000000081525090506125b8565b600082905060005b600082146124d65780806124bf906143fc565b915050600a826124cf9190614474565b91506124ac565b60008167ffffffffffffffff8111156124f2576124f1612fea565b5b6040519080825280601f01601f1916602001820160405280156125245781602001600182028036833780820191505090505b5090505b600085146125b15760018261253d9190613c3a565b9150600a8561254c91906144a5565b603061255891906141f0565b60f81b81838151811061256e5761256d6144d6565b5b60200101907effffffffffffffffffffffffffffffffffffffffffffffffffffffffffffff1916908160001a905350600a856125aa9190614474565b9450612528565b8093505050505b919050565b6000600560008473ffffffffffffffffffffffffffffffffffffffff1673ffffffffffffffffffffffffffffffffffffffff16815260200190815260200160002060008373ffffffffffffffffffffffffffffffffffffffff1673ffffffffffffffffffffffffffffffffffffffff16815260200190815260200160002060009054906101000a900460ff16905092915050565b600060405180608001604052806043815260200161475560439139805190602001208260000151836020015184604001518051906020012060405160200161269c9493929190614505565b604051602081830303815290604052805190602001209050919050565b60006126c3610f3f565b826040516020016126d59291906145b7565b604051602081830303815290604052805190602001209050919050565b6126fc8383612993565b612709600084848461280b565b612748576040517f08c379a000000000000000000000000000000000000000000000000000000000815260040161273f906143dc565b60405180910390fd5b505050565b505050565b816004600083815260200190815260200160002060006101000a81548173ffffffffffffffffffffffffffffffffffffffff021916908373ffffffffffffffffffffffffffffffffffffffff160217905550808273ffffffffffffffffffffffffffffffffffffffff166127c5836114a4565b73ffffffffffffffffffffffffffffffffffffffff167f8c5be1e5ebec7d5bd14f71427d1e84f3dd0314c0f7b2291e5b200ac8c7c3b92560405160405180910390a45050565b600061282c8473ffffffffffffffffffffffffffffffffffffffff16612b61565b15612986578373ffffffffffffffffffffffffffffffffffffffff1663150b7a02612855611f84565b8786866040518563ffffffff1660e01b815260040161287794939291906145ee565b6020604051808303816000875af19250505080156128b357506040513d601f19601f820116820180604052508101906128b0919061464f565b60015b612936573d80600081146128e3576040519150601f19603f3d011682016040523d82523d6000602084013e6128e8565b606091505b5060008151141561292e576040517f08c379a0000000000000000000000000000000000000000000000000000000008152600401612925906143dc565b60405180910390fd5b805181602001fd5b63150b7a0260e01b7bffffffffffffffffffffffffffffffffffffffffffffffffffffffff1916817bffffffffffffffffffffffffffffffffffffffffffffffffffffffff19161491505061298b565b600190505b949350505050565b600073ffffffffffffffffffffffffffffffffffffffff168273ffffffffffffffffffffffffffffffffffffffff161415612a03576040517f08c379a00000000000000000000000000000000000000000000000000000000081526004016129fa906146c8565b60405180910390fd5b612a0c81611f18565b15612a4c576040517f08c379a0000000000000000000000000000000000000000000000000000000008152600401612a4390614734565b60405180910390fd5b612a586000838361274d565b6001600360008473ffffffffffffffffffffffffffffffffffffffff1673ffffffffffffffffffffffffffffffffffffffff1681526020019081526020016000206000828254612aa891906141f0565b92505081905550816002600083815260200190815260200160002060006101000a81548173ffffffffffffffffffffffffffffffffffffffff021916908373ffffffffffffffffffffffffffffffffffffffff160217905550808273ffffffffffffffffffffffffffffffffffffffff16600073ffffffffffffffffffffffffffffffffffffffff167fddf252ad1be2c89b69c2b068fc378daa952ba7f163c4a11628f55a4df523b3ef60405160405180910390a45050565b600080823b905060008111915050919050565b828054612b8090613806565b90600052602060002090601f016020900481019282612ba25760008555612be9565b82601f10612bbb57803560ff1916838001178555612be9565b82800160010185558215612be9579182015b82811115612be8578235825591602001919060010190612bcd565b5b509050612bf69190612bfa565b5090565b5b80821115612c13576000816000905550600101612bfb565b5090565b6000604051905090565b600080fd5b600080fd5b60007fffffffff0000000000000000000000000000000000000000000000000000000082169050919050565b612c6081612c2b565b8114612c6b57600080fd5b50565b600081359050612c7d81612c57565b92915050565b600060208284031215612c9957612c98612c21565b5b6000612ca784828501612c6e565b91505092915050565b60008115159050919050565b612cc581612cb0565b82525050565b6000602082019050612ce06000830184612cbc565b92915050565b600081519050919050565b600082825260208201905092915050565b60005b83811015612d20578082015181840152602081019050612d05565b83811115612d2f576000848401525b50505050565b6000601f19601f8301169050919050565b6000612d5182612ce6565b612d5b8185612cf1565b9350612d6b818560208601612d02565b612d7481612d35565b840191505092915050565b60006020820190508181036000830152612d998184612d46565b905092915050565b6000819050919050565b612db481612da1565b8114612dbf57600080fd5b50565b600081359050612dd181612dab565b92915050565b600060208284031215612ded57612dec612c21565b5b6000612dfb84828501612dc2565b91505092915050565b600073ffffffffffffffffffffffffffffffffffffffff82169050919050565b6000612e2f82612e04565b9050919050565b612e3f81612e24565b82525050565b6000602082019050612e5a6000830184612e36565b92915050565b612e6981612e24565b8114612e7457600080fd5b50565b600081359050612e8681612e60565b92915050565b60008060408385031215612ea357612ea2612c21565b5b6000612eb185828601612e77565b9250506020612ec285828601612dc2565b9150509250929050565b600080fd5b600080fd5b600080fd5b60008083601f840112612ef157612ef0612ecc565b5b8235905067ffffffffffffffff811115612f0e57612f0d612ed1565b5b602083019150836001820283011115612f2a57612f29612ed6565b5b9250929050565b60008060008060008060608789031215612f4e57612f4d612c21565b5b600087013567ffffffffffffffff811115612f6c57612f6b612c26565b5b612f7889828a01612edb565b9650965050602087013567ffffffffffffffff811115612f9b57612f9a612c26565b5b612fa789828a01612edb565b9450945050604087013567ffffffffffffffff811115612fca57612fc9612c26565b5b612fd689828a01612edb565b92509250509295509295509295565b600080fd5b7f4e487b7100000000000000000000000000000000000000000000000000000000600052604160045260246000fd5b61302282612d35565b810181811067ffffffffffffffff8211171561304157613040612fea565b5b80604052505050565b6000613054612c17565b90506130608282613019565b919050565b600067ffffffffffffffff8211156130805761307f612fea565b5b61308982612d35565b9050602081019050919050565b82818337600083830152505050565b60006130b86130b384613065565b61304a565b9050828152602081018484840111156130d4576130d3612fe5565b5b6130df848285613096565b509392505050565b600082601f8301126130fc576130fb612ecc565b5b813561310c8482602086016130a5565b91505092915050565b6000819050919050565b61312881613115565b811461313357600080fd5b50565b6000813590506131458161311f565b92915050565b600060ff82169050919050565b6131618161314b565b811461316c57600080fd5b50565b60008135905061317e81613158565b92915050565b600080600080600060a086880312156131a05761319f612c21565b5b60006131ae88828901612e77565b955050602086013567ffffffffffffffff8111156131cf576131ce612c26565b5b6131db888289016130e7565b94505060406131ec88828901613136565b93505060606131fd88828901613136565b925050608061320e8882890161316f565b9150509295509295909350565b600081519050919050565b600082825260208201905092915050565b60006132428261321b565b61324c8185613226565b935061325c818560208601612d02565b61326581612d35565b840191505092915050565b6000602082019050818103600083015261328a8184613237565b905092915050565b61329b81612da1565b82525050565b60006020820190506132b66000830184613292565b92915050565b6000602082840312156132d2576132d1612c21565b5b60006132e084828501612e77565b91505092915050565b6132f281613115565b82525050565b600060208201905061330d60008301846132e9565b92915050565b600067ffffffffffffffff82111561332e5761332d612fea565b5b61333782612d35565b9050602081019050919050565b600061335761335284613313565b61304a565b90508281526020810184848401111561337357613372612fe5565b5b61337e848285613096565b509392505050565b600082601f83011261339b5761339a612ecc565b5b81356133ab848260208601613344565b91505092915050565b600080604083850312156133cb576133ca612c21565b5b600083013567ffffffffffffffff8111156133e9576133e8612c26565b5b6133f585828601613386565b925050602083013567ffffffffffffffff81111561341657613415612c26565b5b61342285828601613386565b9150509250929050565b600060608201905081810360008301526134468186612d46565b9050818103602083015261345a8185612d46565b90506134696040830184612cbc565b949350505050565b60008060006060848603121561348a57613489612c21565b5b600061349886828701612e77565b93505060206134a986828701612e77565b92505060406134ba86828701612dc2565b9150509250925092565b600080600080604085870312156134de576134dd612c21565b5b600085013567ffffffffffffffff8111156134fc576134fb612c26565b5b61350887828801612edb565b9450945050602085013567ffffffffffffffff81111561352b5761352a612c26565b5b61353787828801612edb565b925092505092959194509250565b6000806000806000806000806080898b03121561356557613564612c21565b5b600089013567ffffffffffffffff81111561358357613582612c26565b5b61358f8b828c01612edb565b9850985050602089013567ffffffffffffffff8111156135b2576135b1612c26565b5b6135be8b828c01612edb565b9650965050604089013567ffffffffffffffff8111156135e1576135e0612c26565b5b6135ed8b828c01612edb565b9450945050606089013567ffffffffffffffff8111156136105761360f612c26565b5b61361c8b828c01612edb565b92509250509295985092959890939650565b61363781612cb0565b811461364257600080fd5b50565b6000813590506136548161362e565b92915050565b6000806040838503121561367157613670612c21565b5b600061367f85828601612e77565b925050602061369085828601613645565b9150509250929050565b600080600080608085870312156136b4576136b3612c21565b5b60006136c287828801612e77565b94505060206136d387828801612e77565b93505060406136e487828801612dc2565b925050606085013567ffffffffffffffff81111561370557613704612c26565b5b613711878288016130e7565b91505092959194509250565b6000819050919050565b600061374261373d61373884612e04565b61371d565b612e04565b9050919050565b600061375482613727565b9050919050565b600061376682613749565b9050919050565b6137768161375b565b82525050565b6000602082019050613791600083018461376d565b92915050565b600080604083850312156137ae576137ad612c21565b5b60006137bc85828601612e77565b92505060206137cd85828601612e77565b9150509250929050565b7f4e487b7100000000000000000000000000000000000000000000000000000000600052602260045260246000fd5b6000600282049050600182168061381e57607f821691505b60208210811415613832576138316137d7565b5b50919050565b7f4552433732313a20617070726f76656420717565727920666f72206e6f6e657860008201527f697374656e7420746f6b656e0000000000000000000000000000000000000000602082015250565b6000613894602c83612cf1565b915061389f82613838565b604082019050919050565b600060208201905081810360008301526138c381613887565b9050919050565b7f5468697320636f6e7472616374206973206f6e6c7920666f7220766965770000600082015250565b6000613900601e83612cf1565b915061390b826138ca565b602082019050919050565b6000602082019050818103600083015261392f816138f3565b9050919050565b7f4f776e61626c653a2063616c6c6572206973206e6f7420746865206f776e6572600082015250565b600061396c602083612cf1565b915061397782613936565b602082019050919050565b6000602082019050818103600083015261399b8161395f565b9050919050565b600081905092915050565b60006139b983856139a2565b93506139c6838584613096565b82840190509392505050565b60006139df8284866139ad565b91508190509392505050565b7f5369676e657220616e64207369676e617475726520646f206e6f74206d61746360008201527f6800000000000000000000000000000000000000000000000000000000000000602082015250565b6000613a47602183612cf1565b9150613a52826139eb565b604082019050919050565b60006020820190508181036000830152613a7681613a3a565b9050919050565b6000613a8882612e04565b9050919050565b613a9881613a7d565b82525050565b6000606082019050613ab36000830186612e36565b613ac06020830185613a8f565b8181036040830152613ad28184613237565b9050949350505050565b600081905092915050565b6000613af28261321b565b613afc8185613adc565b9350613b0c818560208601612d02565b80840191505092915050565b60008160601b9050919050565b6000613b3082613b18565b9050919050565b6000613b4282613b25565b9050919050565b613b5a613b5582612e24565b613b37565b82525050565b6000613b6c8285613ae7565b9150613b788284613b49565b6014820191508190509392505050565b6000613b948284613ae7565b915081905092915050565b7f46756e6374696f6e2063616c6c206e6f74207375636365737366756c00000000600082015250565b6000613bd5601c83612cf1565b9150613be082613b9f565b602082019050919050565b60006020820190508181036000830152613c0481613bc8565b9050919050565b7f4e487b7100000000000000000000000000000000000000000000000000000000600052601160045260246000fd5b6000613c4582612da1565b9150613c5083612da1565b925082821015613c6357613c62613c0b565b5b828203905092915050565b6000613c7a8385612cf1565b9350613c87838584613096565b613c9083612d35565b840190509392505050565b60006040820190508181036000830152613cb6818688613c6e565b90508181036020830152613ccb818486613c6e565b905095945050505050565b60006080820190508181036000830152613cf1818a8c613c6e565b90508181036020830152613d0681888a613c6e565b90508181036040830152613d1b818688613c6e565b90508181036060830152613d30818486613c6e565b90509998505050505050505050565b7f4552433732313a206f776e657220717565727920666f72206e6f6e657869737460008201527f656e7420746f6b656e0000000000000000000000000000000000000000000000602082015250565b6000613d9b602983612cf1565b9150613da682613d3f565b604082019050919050565b60006020820190508181036000830152613dca81613d8e565b9050919050565b7f4552433732313a2062616c616e636520717565727920666f7220746865207a6560008201527f726f206164647265737300000000000000000000000000000000000000000000602082015250565b6000613e2d602a83612cf1565b9150613e3882613dd1565b604082019050919050565b60006020820190508181036000830152613e5c81613e20565b9050919050565b6000613e6e82612ce6565b613e7881856139a2565b9350613e88818560208601612d02565b80840191505092915050565b6000613ea08285613e63565b9150613eac8284613e63565b91508190509392505050565b6000613ec382612e24565b9050919050565b613ed381613eb8565b8114613ede57600080fd5b50565b600081519050613ef081613eca565b92915050565b600060208284031215613f0c57613f0b612c21565b5b6000613f1a84828501613ee1565b91505092915050565b7f4f776e61626c653a206e6577206f776e657220697320746865207a65726f206160008201527f6464726573730000000000000000000000000000000000000000000000000000602082015250565b6000613f7f602683612cf1565b9150613f8a82613f23565b604082019050919050565b60006020820190508181036000830152613fae81613f72565b9050919050565b6000613fc18385613adc565b9350613fce838584613096565b82840190509392505050565b6000613fe7828486613fb5565b91508190509392505050565b60008190508160005260206000209050919050565b6000815461401581613806565b61401f8186613adc565b9450600182166000811461403a576001811461404b5761407e565b60ff1983168652818601935061407e565b61405485613ff3565b60005b8381101561407657815481890152600182019150602081019050614057565b838801955050505b50505092915050565b60006140938284614008565b915081905092915050565b7f53656e64657220646f6573206e6f74206d617463680000000000000000000000600082015250565b60006140d4601583612cf1565b91506140df8261409e565b602082019050919050565b60006020820190508181036000830152614103816140c7565b9050919050565b7f4e61746976654d6574615472616e73616374696f6e3a20494e56414c49445f5360008201527f49474e4552000000000000000000000000000000000000000000000000000000602082015250565b6000614166602583612cf1565b91506141718261410a565b604082019050919050565b6000602082019050818103600083015261419581614159565b9050919050565b6141a58161314b565b82525050565b60006080820190506141c060008301876132e9565b6141cd602083018661419c565b6141da60408301856132e9565b6141e760608301846132e9565b95945050505050565b60006141fb82612da1565b915061420683612da1565b9250827fffffffffffffffffffffffffffffffffffffffffffffffffffffffffffffffff0382111561423b5761423a613c0b565b5b828201905092915050565b7f4552433732313a207472616e73666572206f6620746f6b656e2074686174206960008201527f73206e6f74206f776e0000000000000000000000000000000000000000000000602082015250565b60006142a2602983612cf1565b91506142ad82614246565b604082019050919050565b600060208201905081810360008301526142d181614295565b9050919050565b7f4552433732313a207472616e7366657220746f20746865207a65726f2061646460008201527f7265737300000000000000000000000000000000000000000000000000000000602082015250565b6000614334602483612cf1565b915061433f826142d8565b604082019050919050565b6000602082019050818103600083015261436381614327565b9050919050565b7f4552433732313a207472616e7366657220746f206e6f6e20455243373231526560008201527f63656976657220696d706c656d656e7465720000000000000000000000000000602082015250565b60006143c6603283612cf1565b91506143d18261436a565b604082019050919050565b600060208201905081810360008301526143f5816143b9565b9050919050565b600061440782612da1565b91507fffffffffffffffffffffffffffffffffffffffffffffffffffffffffffffffff82141561443a57614439613c0b565b5b600182019050919050565b7f4e487b7100000000000000000000000000000000000000000000000000000000600052601260045260246000fd5b600061447f82612da1565b915061448a83612da1565b92508261449a57614499614445565b5b828204905092915050565b60006144b082612da1565b91506144bb83612da1565b9250826144cb576144ca614445565b5b828206905092915050565b7f4e487b7100000000000000000000000000000000000000000000000000000000600052603260045260246000fd5b600060808201905061451a60008301876132e9565b6145276020830186613292565b6145346040830185612e36565b61454160608301846132e9565b95945050505050565b7f1901000000000000000000000000000000000000000000000000000000000000600082015250565b60006145806002836139a2565b915061458b8261454a565b600282019050919050565b6000819050919050565b6145b16145ac82613115565b614596565b82525050565b60006145c282614573565b91506145ce82856145a0565b6020820191506145de82846145a0565b6020820191508190509392505050565b60006080820190506146036000830187612e36565b6146106020830186612e36565b61461d6040830185613292565b818103606083015261462f8184613237565b905095945050505050565b60008151905061464981612c57565b92915050565b60006020828403121561466557614664612c21565b5b60006146738482850161463a565b91505092915050565b7f4552433732313a206d696e7420746f20746865207a65726f2061646472657373600082015250565b60006146b2602083612cf1565b91506146bd8261467c565b602082019050919050565b600060208201905081810360008301526146e1816146a5565b9050919050565b7f4552433732313a20746f6b656e20616c7265616479206d696e74656400000000600082015250565b600061471e601c83612cf1565b9150614729826146e8565b602082019050919050565b6000602082019050818103600083015261474d81614711565b905091905056fe4d6574615472616e73616374696f6e2875696e74323536206e6f6e63652c616464726573732066726f6d2c62797465732066756e6374696f6e5369676e61747572652968747470733a2f2f6b696e672d686f6e6f722d6e66742e6f73732d636e2d6265696a696e672e616c6979756e63732e636f6d2f636f6e74726163742e6a736f6e68747470733a2f2f6b696e672d686f6e6f722d6e66742e6f73732d636e2d6265696a696e672e616c6979756e63732e636f6d2fa2646970667358221220fed693cdf12f28aeaec587391bd63b24f38659ad9af5248d660624ddca97a15964736f6c634300080a0033454950373132446f6d61696e28737472696e67206e616d652c737472696e672076657273696f6e2c6164647265737320766572696679696e67436f6e74726163742c627974657333322073616c7429",
  "immutableReferences": {},
  "source": "// SPDX-License-Identifier: MIT\n\npragma solidity ^0.8.0;\n\nimport \"./ERC721Tradable.sol\";\nimport \"./ConsumerBase.sol\";\n\n/**\n * @title Creature\n * Creature - a contract for my non-fungible creatures.\n */\ncontract KingHonorNFTView is ERC721Tradable, ConsumerBase {\n    constructor(\n        string memory _name,\n        string memory _symbol,\n        address _proxyRegistryAddress)\n        ERC721Tradable(_name, _name, _proxyRegistryAddress)\n    {}\n\n    function baseTokenURI() override public pure returns (string memory) {\n        return \"https://king-honor-nft.oss-cn-beijing.aliyuncs.com/\";\n    }\n\n    function contractURI() public pure returns (string memory) {\n        return \"https://king-honor-nft.oss-cn-beijing.aliyuncs.com/contract.json\";\n    }\n\n    /**\n     * This is used instead of msg.sender as transactions won't be sent by the original token owner, but by OpenSea.\n     */\n    function _msgSender()\n        internal\n        override\n        view\n        returns (address sender)\n    {\n        return ContextMixin.msgSender();\n    }\n\n    // forbiden\n    function approve(address to, uint256 tokenId) public virtual override {\n        revert(\"This contract is only for view\");\n    }\n\n    // forbiden\n    function setApprovalForAll(address operator, bool approved) public virtual override {\n        revert(\"This contract is only for view\");\n    }\n\n    // forbiden\n    function transferFrom(address from, address to, uint256 tokenId) public virtual override {\n        revert(\"This contract is only for view\");\n    }\n\n    // forbiden\n    function safeTransferFrom(address from, address to, uint256 tokenId) public virtual override {\n        revert(\"This contract is only for view\");\n    }\n\n    // forbiden\n    function safeTransferFrom(address from, address to, uint256 tokenId, bytes memory _data) public virtual override {\n        revert(\"This contract is only for view\");\n    }\n\n    // cross-chain transferFrom\n    function crossChainTransferFrom(address from, address to, uint256 tokenId) public onlyOwner {\n        _transfer(from, to, tokenId);\n    }\n\n    // cross-chain safeTransferFrom\n    function crossChainSafeTransferFrom(address from, address to, uint256 tokenId, bytes memory _data) public onlyOwner {\n        _safeTransfer(from, to, tokenId, _data);\n    }\n}",
  "sourcePath": "/home/george/hthuang/KingHonorNFT/ethereum/contracts/KingHonorNFTView.sol",
  "compiler": {
    "name": "solc",
    "version": "0.8.10+commit.fc410830.Emscripten.clang"
  },
  "schemaVersion": "3.4.4",
  "updatedAt": "2022-02-07T09:55:28.838Z",
  "networkType": "ethereum",
  "devdoc": {
    "kind": "dev",
    "methods": {
      "approve(address,uint256)": {
        "details": "See {IERC721-approve}."
      },
      "balanceOf(address)": {
        "details": "See {IERC721-balanceOf}."
      },
      "getApproved(uint256)": {
        "details": "See {IERC721-getApproved}."
      },
      "mintTo(address)": {
        "details": "Mints a token to an address with a tokenURI.",
        "params": {
          "_to": "address of the future owner of the token"
        }
      },
      "name()": {
        "details": "See {IERC721Metadata-name}."
      },
      "owner()": {
        "details": "Returns the address of the current owner."
      },
      "ownerOf(uint256)": {
        "details": "See {IERC721-ownerOf}."
      },
      "renounceOwnership()": {
        "details": "Leaves the contract without owner. It will not be possible to call `onlyOwner` functions anymore. Can only be called by the current owner. NOTE: Renouncing ownership will leave the contract without an owner, thereby removing any functionality that is only available to the owner."
      },
      "safeTransferFrom(address,address,uint256)": {
        "details": "See {IERC721-safeTransferFrom}."
      },
      "safeTransferFrom(address,address,uint256,bytes)": {
        "details": "See {IERC721-safeTransferFrom}."
      },
      "setApprovalForAll(address,bool)": {
        "details": "See {IERC721-setApprovalForAll}."
      },
      "supportsInterface(bytes4)": {
        "details": "See {IERC165-supportsInterface}."
      },
      "symbol()": {
        "details": "See {IERC721Metadata-symbol}."
      },
      "totalSupply()": {
        "details": "Returns the total tokens minted so far. 1 is always subtracted from the Counter since it tracks the next available tokenId."
      },
      "transferFrom(address,address,uint256)": {
        "details": "See {IERC721-transferFrom}."
      },
      "transferOwnership(address)": {
        "details": "Transfers ownership of the contract to a new account (`newOwner`). Can only be called by the current owner."
      }
    },
    "title": "Creature Creature - a contract for my non-fungible creatures.",
    "version": 1
  },
  "userdoc": {
    "kind": "user",
    "methods": {
      "isApprovedForAll(address,address)": {
        "notice": "Override isApprovedForAll to whitelist user's OpenSea proxy accounts to enable gas-less listings."
      }
    },
    "version": 1
  }
}